:020000040800F2
:10000000405B0020750200080F0900081B0800086B
:100010000D0900083D070008051400080000000055
:10002000000000000000000000000000DD010008EA
:1000300075070008000000002102000805120008F2
:100040008F0200088F0200088F0200088F0200084C
:100050008F0200088F0200088F0200088F0200083C
:100060008F0200088F0200088F0200088F0200082C
:100070008F0200088F0200088F0200088F0200081C
:100080008F0200088F0200088F0200088F0200080C
:100090008F0200088F0200088F0200088F020008FC
:1000A0008F0200088F0200088F0200088F020008EC
:1000B0008F0200088F0200088F0200088F020008DC
:1000C0008F0200088F0200088F0200088F020008CC
:1000D0008F020008691200088F0200088F020008D2
:1000E0008F0200088F0200088F0200088F020008AC
:1000F0008F0200088F0200088F0200088F0200089C
:100100008F0200088F0200088F0200088F0200088B
:100110008F0200088F0200088F0200088F0200087B
:100120008F0200088F0200088F0200088F0200086B
:1001300000F002F800F042F80AA090E8000C8244B7
:100140008344AAF10107DA4501D100F037F8AFF294
:10015000090EBAE80F0013F0010F18BFFB1A43F0A5
:10016000010318473C3D00005C3D0000103A24BFED
:1001700078C878C1FAD8520724BF30C830C144BF0C
:1001800004680C607047000000230024002500264E
:10019000103A28BF78C1FBD8520728BF30C148BFEA
:1001A0000B607047642900F0F180732900F0FE8134
:1001B000002070471FB51FBD10B510BD00F08BFAB1
:1001C0001146FFF7F7FF01F08FFB00F0A9FA03B427
:1001D000FFF7F2FF03BC01F06BF90000224B196836
:1001E0000868B0E8F00F80F30988BFF36F8F4FF015
:1001F000000080F311884EF00D0E704700000000E3
:1002000006480068006880F3088862B661B6BFF3EC
:100210004F8FBFF36F8F00DF00BF00BF08ED00E01E
:10022000EFF30980BFF36F8F0F4B1A6820E9F00FCF
:10023000106008B54FF0500080F31188BFF34F8F66
:10024000BFF36F8F02F0FCFB4FF0000080F31188CA
:10025000BDE8084019680868B0E8F00F80F3098825
:10026000BFF36F8F704700BF58000020EFF3058089
:10027000704700000948804709480047FEE7FEE74D
:10028000FEE7FEE7FEE7FEE7FEE7FEE7FEE7FEE746
:1002900004480549054A064B70470000191200083A
:1002A0003101000840550020405B002040570020ED
:1002B00040570020704700000FB4044910B503AA4E
:1002C000029800F077F910BC5DF814FB40000020A4
:1002D0002DE9F0410E460446002020622046E168E8
:1002E000884730B3252805D0D4E901219047206AFA
:1002F000401CF2E7E168204600278847050018D037
:10030000A5F14100192802D820354FF40067324684
:10031000294620462760FFF745FF40B1012804D059
:10032000F61D26F007060836D8E7361DD6E728461C
:10033000DAE7206ABDE8F08170B50C460546012A6F
:1003400005D02878800600D5EA69002302E0012361
:1003500005E05B1C934202D2E05C0028F9D1A86959
:10036000E618C01AA861286A184428622846AFF324
:10037000008004E0D5E9012114F8010B9047B44254
:10038000F8D32846AFF3008070BD00002DE9F0419E
:100390000646002410687529314616A510D0AFF323
:1003A0000080002802DA404213A507E031688A077E
:1003B00001D512A502E0490704D511A5012401E0E9
:1003C000AFF3008000210A2206F1240709E0B0FB08
:1003D000F2FCB0FBF2F302FB1C00303078541846FC
:1003E000491C0028F3D123462A463046BDE8F04197
:1003F00000F059B8000000002D0000002B000000A4
:1004000020000000032A40F2308010F0030C00F0BE
:10041000158011F8013BBCF1020F624498BF11F83E
:1004200001CB00F8013B38BF11F8013BA2F10402F7
:1004300098BF00F801CB38BF00F8013B11F003036F
:1004400000F0CA80083AC0F0088051F8043B083A2E
:1004500051F804CBA0E80810F5E7121D5CBF51F875
:10046000043B40F8043BAFF30080D20724BF11F8EF
:10047000013B11F801CB48BF11F8012B24BF00F854
:10048000013B00F801CB48BF00F8012B704702F098
:10049000FF0343EA032242EA024200F0D1B8704768
:1004A0007047704770472DE9F0470D4699469246D0
:1004B000044600F124080168880604D5E06921F0AB
:1004C0001001216000E00120A84201DD471B00E08F
:1004D0000027A1697A1902EB0900081AA0612078A7
:1004E000C00602D42046AFF30080002608E0D4E91D
:1004F00001211AF806009047206A401C761C2062F1
:100500004E45F4DB2078C0060AD52046AFF30080C4
:1005100006E0D4E9012130209047206A401C206287
:10052000381EA7F10107F4DC07E0D4E9012118F82F
:1005300005009047206A401C2062281EA5F1010595
:10054000F3DC2046AFF300802078000602D50220BD
:10055000BDE8F0870120FBE701694A1C02610878C9
:10056000704700B58FB0CDE90131002105910549F3
:100570007944CDE9031011466846FFF7A9FE0FB094
:1005800000BD0000E5FFFFFF10B5436913B1AFF3F5
:10059000008001E0FFF7D0FE012010BD127800F1CD
:1005A00024010A7000224A700122EDE711684FF021
:1005B000FF32E9E7074B70B50D467B44FFF7D1FFEB
:1005C0000446284600F05CF810B14FF0FF3070BDD3
:1005D000204670BD9F12000010B5203AC0F00B807D
:1005E000B1E81850203AA0E81850B1E81850A0E837
:1005F0001850BFF4F5AF5FEA027C24BFB1E8185091
:10060000A0E8185044BF18C918C0BDE810405FEA00
:10061000827C24BF51F8043B40F8043B08BF70477C
:10062000D20728BF31F8023B48BF11F8012B28BF81
:1006300020F8023B48BF00F8012B70474FF0000242
:100640000429C0F0128010F0030C00F01F80CCF1E0
:10065000040CBCF1020F18BF00F8012BA8BF20F852
:10066000022BA1EB0C0100F011B85FEAC17C24BFA2
:1006700000F8012B00F8012B48BF00F8012B704750
:10068000007B00F0800070474FF0000200B5134679
:1006900094469646203922BFA0E80C50A0E80C50A2
:1006A000B1F12001BFF4F7AF090728BFA0E80C5053
:1006B00048BF0CC05DF804EB890028BF40F8042B4C
:1006C00008BF704748BF20F8022B11F0804F18BFB9
:1006D00000F8012B7047754600F02CF8AE46050077
:1006E0006946534620F00700854618B020B5FFF74D
:1006F000CFFDBDE820404FF000064FF000074FF05F
:1007000000084FF0000B21F00701AC46ACE8C0092F
:10071000ACE8C009ACE8C009ACE8C0098D46704738
:1007200010B50446AFF300802046BDE81040FFF747
:100730004EBD000000487047E0540020FEE7000076
:100740001CB507490120CDE900010023802205A145
:10075000074802F0F9FCBDE81C4002F01FB9000098
:100760001400002073746172745F7461736B000015
:10077000D92200087047F0B5CC78002204F00F03AE
:10078000E40601D58C7823430C784FF00F0C14F05D
:10079000FF0F4FF0010E1BD005680E880EFA02F411
:1007A0002640A64210D196000CFA06F725EA070764
:1007B00003FA06F5CE783D43282E02D0482E02D00B
:1007C00002E0446100E00461521C082AE5D30560A0
:1007D0000A88FF2A1CD94468002202F108060EFA92
:1007E00006F50E882E40AE420ED196000CFA06F7A2
:1007F000BC4303FA06F7CE783C43282E00D145616E
:10080000CE78482E00D10561521C082AE5D34460F9
:10081000F0BD4161704701617047FEE710B5094CBA
:1008200040212046FFF7F7FF80212046FFF7F3FF26
:1008300080212046FFF7EDFF2046BDE81040402113
:10084000FFF7E7BF0014014010B5074C40212046D8
:10085000FFF7E1FF80212046FFF7DBFF2046BDE8E0
:1008600010408021FFF7D7BF0014014010B5054CA0
:1008700040212046FFF7CFFF2046BDE81040402131
:10088000FFF7C7BF001401402DE9F0411C4C804622
:100890001C4E20781C4D0127012809D1D6F80001F3
:1008A000012809D0D5F8100130B1D5F80C0118B1E4
:1008B000D6F80001A8B11DE00A2000F039FE0020A2
:1008C0002070D6F80001012807D0D5F8100118B122
:1008D000D5F80C0118B10DE00220BDE8F08103202D
:1008E000FBE7D5F81001012804D1D5F80C01012847
:1008F00000D12770B8F1010F00D127700020ECE77C
:10090000300000200000214200002342FEE7704733
:1009100070B500F0700500F079F80A4C0646E06802
:1009200020F08000E060272000F06EFF45EA06001E
:1009300000F06AFFE06840F08000E060BDE87040D1
:1009400000F064B800200140F8B501210D022846EE
:1009500000F0E2FA10208DF803000126124C8DF809
:100960000260ADF8005069462046FFF704FF2946B3
:100970002046FFF750FF48208DF803008DF80260F5
:100980004020ADF8000069462046FFF7F4FE402104
:100990002046FFF740FFE06820F48070E060E068E8
:1009A00040F08000E060F8BD002001402DE9F041FA
:1009B0000C4F0E461546F96821F08001F96000F0F1
:1009C00023FF002405E0FF2000F01EFF3055641CCB
:1009D000E4B2AC42F7D3F86840F08000F860BDE8BC
:1009E000F08100000020014010B5074CE16821F0C3
:1009F0008001E16000F008FFFF2000F005FFE168E2
:100A000041F08001E16010BD0020014010B5064CAE
:100A1000E06820F08000E060072000F0F5FEE1686B
:100A200041F08001E16010BD00200140052A00D99D
:100A30000522052800D905200A30C0B200F058B8B8
:100A4000052900D905210A460146102000F050B8BA
:100A50002DE9F041254D07460E46E868002420F0B8
:100A60008000E860E12000F0CFFEE86840F0800000
:100A7000E860E86820F48070E86032463946A020DB
:100A800000F036F8E86840F48070E8604FF4FA76D9
:100A90000FE0012000F04CFD2046641CA4B2B042DF
:100AA00007D1FFF751FF00F099FA002000F0DEFABD
:100AB00004E0A86840F38010401CEAD00720FFF74C
:100AC00093FF04460146072000F030F8E00606D503
:100AD000FF21E12000F02AF81020BDE8F081A006F7
:100AE00001D52020F9E7FF20F7E7000000200140B2
:100AF0002DE9F0410C4F0E461546F96821F08001B2
:100B0000F96040F0200000F07FFE002404E0305D3A
:100B100000F07AFE641CE4B2AC42F8D3F86840F00E
:100B20008000F860BDE8F0810020014070B5094CFC
:100B30000D46E16821F08001E16040F0200000F006
:100B400063FE284600F060FEE06840F08000E06050
:100B500070BD0000002001402DE9FF4115A0174E97
:100B6000D0E90010CDE90010002002906C4602ADE3
:100B70004FF4FA670390052269461020FFF7B8FF8B
:100B8000052202A91020FFF711FF0020215C2A5C3A
:100B9000914203D1401CC0B20528F7D3052807D0E5
:100BA00007A03168FFF788FB384600F0C1FCE2E798
:100BB000BDE8FF81A5A5A5A5A50000003400002083
:100BC000257300001CB50020274D284C8DF800002F
:100BD0008DF8040022A64FF47A776869002838D08F
:100BE000002201A902F0C0F9012822D101F08CFCF9
:100BF0009DF804101EA0FFF75FFB01F0C1FC9DF8FB
:100C00000400022815D19DF80000C0F101008DF804
:100C10000000A86968B102230022694602F06EF85C
:100C2000012806D001F070FC18A0FFF745FB01F089
:100C3000A7FC9DF8000080B11B48007810F0FF0170
:100C400007D01A48FFF704FFD4F89401C043C4F852
:100C50009401384601F0A0FDBFE706213046F1E7D8
:100C60004C695F5A696900001400002000002342AB
:100C70004B7175657565206973206F6B21207661F6
:100C80006C75652069732025640D0A004D6F6465DD
:100C90005F51756575652053656E64204661696CAA
:100CA0006564210D0A0000003C000020CC000020FB
:100CB00030B50F23C27801780125F2B1144A1268C9
:100CC00001F1E02102F4E062C2F5E062120AC2F131
:100CD0000404D3404278A24084781C40144322018B
:100CE00081F80024007800F01F018D404009800049
:100CF00000F1E020C0F8005130BD01F01F00854038
:100D00004809800000F1E020C0F8805130BD0000AB
:100D10000CED00E0024908430249086070470000FA
:100D20000000FA050CED00E070B50025002105F18A
:100D3000B00000F08CF80021022000F088F80021BB
:100D4000102000F084F800240121002000F07FF83A
:100D5000641CE4B2802CF7D36D1CEDB2082DE5D3F2
:100D600070BD10B50A460446002102F1B00000F043
:100D70006EF8A41CC4F3031040F01000002100F032
:100D800066F804F00F00BDE81040002100F05FB8E5
:100D90002DE9F041203A00240F468046D5B27F2845
:100DA00003D900208F1C8046FFB2102B394610D08B
:100DB000FFF7D7FF164905EB450001EB4005012180
:100DC000285D00F044F8641CE4B2062CF7D3BDE8BB
:100DD000F081FFF7C6FF0F4E04EB05100121305CD8
:100DE00000F035F8641CE4B2082CF5D37F1CF9B28E
:100DF0004046FFF7B6FF002404EB05103044012104
:100E0000007A00F024F8641CE4B2082CF4D3DEE786
:100E10006C360008943800082DE9F04198461746D2
:100E20000E46044600250DE0434631462046FFF7B6
:100E3000AFFF0834E4B2782C02D90024B61CF6B215
:100E40006D1CEDB27A5D002AEED1BDE8F081C0B232
:100E500009B100F016BB00F0FDBA000008B5144C53
:100E60004FF4FA75A069C8B10022694602F07CF817
:100E7000012813D101F048FB9DF800100DA0FFF7E9
:100E80001BFA01F07DFB9DF8000058B1FFF74CFF05
:100E900010230FA203210620FFF7BEFF284601F012
:100EA0007BFCDFE7FFF740FF10230CA2F2E7000016
:100EB000140000204D7175657565206973206F6B96
:100EC000212076616C75652069732025640D0A0008
:100ED00075736172742073656E640000737461745D
:100EE00069632073656E6400044A0029D16901D0EA
:100EF000014300E08143D1617047000000100240CF
:100F0000044A0029116901D0014300E081431161C5
:100F10007047000000100240044A0029916901D086
:100F2000014300E0814391617047000000100240DE
:100F3000044A0029D16801D0014300E08143D16017
:100F4000704700000010024030B5204A5168204B25
:100F500011F00C0103D0042901D0082901D003604D
:100F600012E05168536801F470114FF0020413F459
:100F7000803F04EB914102D053689B0301D5154B90
:100F800000E0134B5943016051680F2303EA11112C
:100F9000114B5C5C0168E14041605468072505EA3B
:100FA00014241C5D21FA04F48460546805EAD424F6
:100FB0001B5DD940C1605268032303EA9232064B9D
:100FC0001B1F9A5CB1FBF2F1016130BD00100240C1
:100FD00000127A0000093D00480000201CB520A046
:100FE000D0E90010CDE900101F48C16841F48071BC
:100FF000C1607020FFF78CFC01211C20FFF796FDDB
:1010000007211D20FFF792FD1C20FFF7EDFC1D209E
:10101000FFF7EAFC0A210020FFF788FD01210846BE
:10102000FFF784FD01210220FFF780FD0321084620
:10103000FFF77CFDFF210420FFF778FD3C21052010
:10104000FFF774FD26210620FFF770FD0521684695
:10105000FFF7F6FC052269460020FFF7E7FC1CBD00
:1010600034431010010000000020014010B5044678
:101070000020FFF7B9FC014614B1012C03D004E0B5
:1010800020F0010101E040F00101BDE81040002026
:10109000FFF74CBD0029018802D041F0400101E07A
:1010A00021F0400101807047114910B588420AD1F2
:1010B000841401212046FFF73BFF2046BDE8104085
:1010C0000021FFF735BF0B49884202D101210414EA
:1010D00004E0094988420AD10121C4132046FFF7E0
:1010E0000FFF2046BDE810400021FFF709BF10BDEB
:1010F0000030014000380040003C00400246002023
:1011000012890A4200D00120704730B502884C880D
:1011100002F441530A88CD8822438C882C43224311
:101120000C8922434C8922438C892243CC89224357
:101130001A430280828B22F400628283098A018230
:1011400030BD00000CB500222648009201920168D3
:1011500041F4803101604FF4A063016801F4003173
:1011600001910099491C0091019911B90099994286
:10117000F3D10168890333D5012101911A490A6825
:1011800042F010020A600A6822F003020A600A684C
:1011900042F002020A604168416041684160416872
:1011A00041F480614160416821F47C1141604168F3
:1011B00041F4E8114160016841F08071016001680B
:1011C0008901FCD5416821F003014160416841F08B
:1011D000020141604168C1F381010229FAD10CBDCD
:1011E00001920CBD00100240002002404FF0E021AF
:1011F0000428086903D020F004000861704740F01B
:101200000400FAE710B501F0CBFF012803D0BDE8D8
:10121000104001F0CDBC10BD0F4810B5016841F081
:101220000101016041680D4A1140416001680C4AAA
:1012300011400160016821F480210160416821F4BE
:10124000FE0141604FF41F018160FFF77BFF0549FC
:101250004FF00060086010BD001002400000FFF871
:10126000FFFFF6FE08ED00E070B5154C40F2255189
:10127000204600F035F800280ED0204600F0BEF8D9
:10128000104AC1B21088030406D444044FF000038E
:1012900006D50A2901D0138070BD40F400400DE04E
:1012A0000D2909D0C0F30D04074D401C80B229550B
:1012B0001080C728EFD870BD40F48040108070BD0A
:1012C000003801403C000020CC000020002981892A
:1012D00002D041F4005101E021F4005181817047B6
:1012E00070B501F01F0501260024C1F3421306FA70
:1012F00005F2012B0FD0022B0FD0838A4FEA112168
:101300000088134206FA01F600EA060001D000B197
:101310000124204670BD8389F0E7038AEEE710B50B
:10132000C1F3421301F01F040121A140012B07D09A
:10133000022B07D01430002A026805D00A4304E0CB
:101340000C30F8E71030F6E78A43026010BD000069
:1013500030B50446008A85B00D464CF6FF71084052
:10136000E98801432182A0894EF6F3110840A9883B
:101370002A8911436A8902431143A181A08A4FF649
:10138000FF410840A9890143A1826846FFF7DCFDBF
:101390001948844201D1039800E00298A189090408
:1013A00000EBC00101EB0010296801D5490000E005
:1013B0008900B0FBF1F06422B0FBF2F109010B09E6
:1013C0006FF018056B4300EB8300A3891D044FF0F9
:1013D000320306D503EBC000B0FBF2F000F00700CB
:1013E00005E003EB0010B0FBF2F000F00F00084343
:1013F000208105B030BD0000003801408088C0F376
:1014000008007047FEE7000070B5114E0446402109
:101410003046FFF7FEF9002504F0800080284FF0E9
:101420008001304610D0FFF7F4F96006040E402129
:101430003046FFF7F0F940213046FFF7EAF96D1C1E
:10144000EDB2082DE8D370BDFFF7E5F9EDE7000038
:101450000014014010B50446FFF7E0F97820FFF7CB
:10146000D3FFFFF703FA0020FFF7CEFFFFF7FEF9E7
:101470002046FFF7C9FFFFF7F9F9BDE81040FFF775
:10148000E3B910B50446FFF7C9F97820FFF7BCFFB0
:10149000FFF7ECF94020FFF7B7FFFFF7E7F9204629
:1014A000FFF7B2FFFFF7E2F9BDE81040FFF7CCB954
:1014B0007047000010B50420FFF798FE0C480D4956
:1014C0000D4A0068B0FBF1F3B0FBF1F14FF47A7014
:1014D00041431370012050804FF0E020026942F038
:1014E000020202614161016941F00101016110BD27
:1014F0000000002040420F003800002070B54FF07F
:10150000E02500216C69094AAB6912785043AA6949
:101510009A42FCD002D2A3EB020302E0A4EB020643
:101520003344194413468142F1D370BD3800002082
:1015300070B5054600244FF47A7603E03046FFF795
:10154000DDFF641CAC42F9D370BD0000F8B5012189
:101550004FF49470FFF7E0FC4FF4FC74ADF80040DA
:1015600010208DF803004A4E03258DF8025069467D
:101570003046FFF700F921463046FFF74CF9454C5D
:10158000ADF8005069462046FFF7F5F803212046E4
:10159000FFF741F9404D4FF40044ADF80040694673
:1015A0002846FFF7E8F821462846FFF734F9C82017
:1015B000FFF7BEFF0021AE20FFF749FC002102200B
:1015C000FFF745FC00211020FFF741FC00214020DF
:1015D000FFF73DFC0021B020FFF739FC00218120FE
:1015E000FFF735FC0021FF20FFF731FC0021A1208F
:1015F000FFF72DFC0021A620FFF729FC0021A820E1
:10160000FFF725FC00213F20FFF721FC0021C82027
:10161000FFF71DFC0021D320FFF719FC002108462D
:10162000FFF715FC0021D520FFF711FC00218020D9
:10163000FFF70DFC0021D820FFF709FC0021052051
:10164000FFF705FC0021D920FFF701FC0021F12064
:10165000FFF7FDFB0021DA20FFF7F9FB0021122044
:10166000FFF7F5FB0021DB20FFF7F1FB0021302025
:10167000FFF7EDFB00218D20FFF7E9FB002114208F
:10168000FFF7E5FB0021AF20FFF7E1FBF8BD00000D
:1016900000140140001001400020014038B5012134
:1016A0004420FFF739FC0120ADF8000028208DF818
:1016B000030003248DF8024069460848FFF75BF8F1
:1016C0001820ADF8000048208DF803008DF8024086
:1016D00069460348FFF74FF838BD00000008014095
:1016E0000018014038B501214820FFF715FC2024DF
:1016F000ADF8004010208DF8030003200B4D8DF84D
:10170000020069462846FFF736F820212846FFF7F1
:1017100082F8ADF80040064C69462046FFF72BF8EA
:1017200020212046FFF777F838BD0000000C01406B
:101730000018014030B587B001214FF48470FFF7E5
:10174000EBFB01208DF8160018208DF817004FF4E0
:1017500000502A4DADF8140005A92846FFF70BF8F4
:101760004FF40040ADF8140005A92846FFF703F830
:101770004FF48044ADF8144005A92846FEF7FBFF5E
:1017800010208DF8170080201D4DADF8140005A91C
:101790002846FEF7F0FF80212846FFF73CF8194D58
:1017A0002846FFF781FC01212046FFF79DFB002121
:1017B0002846FFF76FFC0020ADF800004FF482715F
:1017C000ADF80210ADF808006111ADF80A1028213B
:1017D000ADF80C10ADF80600ADF80400ADF80E0041
:1017E0000720ADF8100069462846FFF78EFC01215E
:1017F0002846FFF74FFC07B030BD0000000C014049
:1018000000200140003800402DE9F0410746002447
:101810004FF6FF76104D03E0641CA4B2B44205D02D
:1018200002212846FFF76AFC0028F5D038460A4F07
:1018300047F6FF740C37388003E0641CA4B2B4424E
:1018400005D001212846FFF759FC0028F5D038883B
:10185000C0B2BDE8F08100000038004004490A88A9
:101860005206FCD5024AC1B2121D11807047000019
:101870000038014008B50E4C0020FFF705F801467E
:101880008DF80000606970B169B1022300226946D9
:1018900001F034FA012806D000F036FE05A0FEF76C
:1018A0000BFD00F06DFE0A2000F076FFE4E700007B
:1018B000140000204B65795F51756575652053658F
:1018C0006E64204661696C6564210D0A00000000A9
:1018D000044CD4F89401C043C4F89401C82000F02B
:1018E0005BFFF6E70080214210B54FF44070FFF730
:1018F00011FAFFF7DFFD4FF4E13000F06FFDFEF766
:101900001FFF002010BD00002DE9F041184E0F46CA
:101910000446F5683068001D00F0B0FD38B9306845
:1019200090F82C1001208840316981433161601C9E
:1019300007D137B13168BDE8F0410E48091D00F00C
:10194000D6BD30682C44AC424460316805D2B06BDF
:10195000BDE8F041091D00F0B2BD706B091D00F03B
:10196000AEFDB06A844200D2B462BDE8F0810000EE
:1019700058000020A40400202DE9F041054600F0A5
:10198000C3FD2D4EB068401CB06030682B4F10B1C5
:10199000706930B32BE03560B068012827D100248E
:1019A00004EB840007EB800000F07BFD641C202C1E
:1019B000F6D3234800F075FD2148143000F071FD86
:1019C0001F48283000F06DFD1D483C3000F069FDD7
:1019D0001B48503000F065FD194870631430B06347
:1019E00005E03068E96AC06A884200D83560706AEC
:1019F0000121401C70626864E86A326981401143C9
:101A0000316100EB800007EB8000291D00F06FFDC5
:101A100000F0B6FD706900280CD03068E96AC06A31
:101A2000884207D207494FF080500860BFF34F8FBC
:101A3000BFF36F8FBDE8F08158000020D401002073
:101A40005404002004ED00E010B500F05DFD0E4CE4
:101A50002068A0B90D4800F024FD0C48143000F0B7
:101A600020FD0A48E060143020610022102105208A
:101A700001F0B4F8206010B105A100F059FEBDE8F6
:101A8000104000F07DBD000094000020B80400204C
:101A9000546D72510000000030B4026C0B46002AF5
:101AA0000BD0C1681144C1608468A14201D30168B0
:101AB000C16030BC1846FEF7A5BC30BC70472DE9AC
:101AC000F041856B174604460026026C82B1C7B10F
:101AD000E068FEF797FCE168206C091AE160226873
:101AE000914202D2A168081AE060022F16D017E0D6
:101AF0002068A8B9A06801F0DBFB06460020A060C2
:101B00000EE06068FEF77EFC216C6068084460604F
:101B1000A168884204D32068606001E005B16D1EB1
:101B20006D1CA5633046BDE8F08110B50446006B1E
:101B300000F058FD2046BDE8104000F053BD000005
:101B400010484FF4A041420706D0C01D0D4920F0B7
:101B50000700411AC1F5A0410B4A00230144C2E924
:101B600000030839103A21F0070111604B600B6047
:101B70000B1AC0E9001393604FF000405360D0602F
:101B800070470000E0040020B8000020134E144D00
:101B9000A6F52F774FF08058DFF8489011E000F05D
:101BA000B3FCF068C468201D00F068FCA868401E03
:101BB000A8606868401E686000F0E2FC2046FFF7FD
:101BC000B4FF68680028EAD138680128F9D9C9F853
:101BD0000080BFF34F8FBFF36F8FF2E790040020B8
:101BE0005800002004ED00E02DE9F05FDDE90B94E2
:101BF0000E461746834691009A460A9DA522206B01
:101C0000FEF745FC6FF00301206B01EB87010844F0
:101C100020F00707780705D040F261321CA121A00F
:101C2000FEF74AFB4FF0000866B100202218315C35
:101C300082F83410315C11B1401C1028F6D384F8BE
:101C4000438001E084F83480202D00D31F25E56215
:101C5000C4E91358201D00F02FFC04F1180000F017
:101C60002BFC2461C5F120006462A061C4F854809B
:101C700084F8588052465946384600F01BFB2060D5
:101C8000B9F1000F01D0C9F80040BDE8F09F000095
:101C90002E2E5C4672656552544F535C7461736BB3
:101CA000732E63004572726F723A25732C25640D92
:101CB0000A00000030B5114900E011460A6882426E
:101CC000FBD34B685C18844203D1406818444860D9
:101CD000084643681C18944209D1084C103C2468FB
:101CE000A24209D052681A4442600A68126802602F
:101CF000814200D0086030BD0460F9E7B8000020E0
:101D000070B5002441600B4D0061914206D8D11A94
:101D10008269914206D2011D286907E09A4203D2E6
:101D2000994201D3012403E0011DE86800F0C7FBDC
:101D3000204670BD9400002010B5044600F0E4FB7E
:101D4000A06B20B1002400F01BFC204610BD012434
:101D5000F9E700002DE9F34100980F460026846C56
:101D60002CB940F6453216A11AA0FEF7A5FAA06BD1
:101D7000E16B884205D340F6463211A115A0FEF76B
:101D80009BFAA06BE16B88420CD294F945503A461D
:101D900069462046FFF793FE0646681C05D06D1C79
:101DA00084F845503046BDE8FC81606A0028F9D0CF
:101DB00004F1240001F0D6FA0028F3D00126F1E75F
:101DC0002E2E5C4672656552544F535C7175657575
:101DD000652E63004572726F723A25732C25640D6F
:101DE0000A000000F8B5054617480E46C068C068EE
:101DF000C468201D00F042FB94F82800410718D564
:101E0000A0692B46411932462046FFF779FFA0B161
:101E100000200346014600902A46204601F0DEFBE2
:101E200058B90A494FF4FC7201F11800FEF744FA60
:101E300003E020F0010084F82800216A01B0204668
:101E4000BDE8F0400847000094000020403500083D
:101E500070B586B03D4E70E00198002806DADDE9E5
:101E60000301029A90470198002866DB039C606991
:101E700010B1201D00F002FB05A800F0C3F80546D4
:101E800001980A2859D2DFE800F00505052F354CE6
:101E900005052F3594F828002A4640F0010084F803
:101EA00028000298A169034601442046FFF728FF55
:101EB000002842D0216A2046884794F8280040072D
:101EC0003BD5002000900298A169002342181946D2
:101ED000204601F083FB00282FD140F213321CA1D1
:101EE00021A0FEF7E9F928E014F8280F20F00100FE
:101EF000207022E094F8280040F0010084F82800C7
:101F00000298A06128B940F22B3211A116A0FEF769
:101F1000D3F9A0692B4641191A462046FFF7F0FE77
:101F20000BE094F82800810703D4204600F05AFB08
:101F300003E020F0010084F82800002201A93068A5
:101F400001F012F8002887D106B070BD940000207F
:101F50002E2E5C4672656552544F535C74696D65F4
:101F600072732E63000000004572726F723A25731F
:101F70002C25640D0A000000F8B50D46064600F059
:101F800057FD684600F03EF80446009810B101F095
:101F900035FAF8BD1148ADB101690968D9B100251C
:101FA000311B2A46006800F0D5FB01F027FA002813
:101FB000EFD10B494FF080500860BFF34F8FBFF354
:101FC0006F8FF8BDA642EBD801F018FA21463046D3
:101FD000FFF708FFF8BD0125E2E7000094000020AC
:101FE00004ED00E00648416B096829B1416BC968FE
:101FF000C9684968816270474FF0FF31FAE7000015
:102000005800002070B5054601F0D8F8064E044689
:10201000B068844203D200F009F8012000E00020FB
:1020200028602046B46070BD94000020F8B5194EB9
:1020300027E0C068C4680568201D00F01FFA216A07
:102040002046884794F8280040071AD5A0692844FC
:10205000A84206D924616060211DF06800F02FFAC3
:102060000FE000200346014600902A46204601F07A
:10207000B5FA30B908494FF4617201F11800FEF762
:102080001BF9F06801680029D3D13169C6E9031052
:10209000F8BD000094000020403500080848406862
:1020A000401C04D0CA2207A111A0FEF705F9502058
:1020B00080F31188BFF34F8FBFF36F8FFEE70000EF
:1020C000C00000202E2E5C4672656552544F535C52
:1020D000706F727461626C655C525644535C41521D
:1020E0004D5F434D335C706F72742E6300000000CF
:1020F0004572726F723A25732C25640D0A00000038
:10210000084CE068016839B1002139B10020FFF7BF
:1021100033FFFFF79DFEF4E70121F6E7C068006892
:10212000F5E70000940000202DE9F041044600F09E
:10213000EBF994F9455004F1240610E0A06C20B1AD
:1021400000212046FFF706FE04E0606A48B13046F1
:1021500001F008F908B100F0C3FB6D1E6DB2002D4F
:10216000ECDC4FF0FF3684F8456000F009FA00F02F
:10217000CBF994F9445004F1100709E0206948B103
:10218000384601F0EFF808B100F0AAFB6D1E6DB201
:10219000002DF3DC84F84460BDE8F04100F0F0B9B4
:1021A0002DE9F0410546002600F042FC324F386828
:1021B00008B9FFF7C5FCF86805424FD1002D4DD096
:1021C000083568070BD005F00700C0F1080005448A
:1021D000680704D0952229A132A0FEF76DF8002DE2
:1021E0003CD07868854239D82349103108460468C4
:1021F00001E0214604466068A84202D22068002817
:10220000F7D13868B846844228D00E682068086044
:1022100060680836401B10280ED96719780704D06B
:10222000C22216A11FA0FEF747F86068401B786025
:1022300038466560FFF73EFD6168D8F80400424605
:10224000401AC8F80400D8F80830984200D29060CC
:10225000D8F80C0001430020C4E9000101F0CEF8D9
:10226000700705D04FF4817204A10EA0FEF724F888
:102270003046BDE8F0810000A80000202E2E5C460C
:1022800072656552544F535C706F727461626C6515
:102290005C4D656D4D616E675C686561705F342E85
:1022A000630000004572726F723A25732C25640D2D
:1022B0000A00000010B5031F4FF080741C601B1F44
:1022C00021F001011960191F024B0B6014394038CD
:1022D0000A6010BD9D2000087CB500F015F9FFF7DD
:1022E00001FAFFF7DBF9FFF731F9FEF71DFD1023C7
:1022F00025A203210620FEF78FFDFFF71BFAFEF74C
:1023000023FBFEF729FCFEF769FE012100220846A7
:1023100000F064FC1F4C012100226061084600F0BF
:102320005DFCA06104F110000325CDE900500023FD
:10233000802219A11B4800F007FF042004F10801C6
:10234000CDE900018201002317A11B4800F0FCFE2B
:10235000201DCDE900500023802218A11A4800F06A
:10236000F3FE04F10C010120CDE9000100236422F9
:1023700016A1194800F0E8FE206800F043FABDE815
:102380007C4000F0FDB800007374617469632073D1
:10239000656E6400140000206B65795F7461736B77
:1023A00000000000751800086E726632346C30311F
:1023B0005F7461736B000000C50B00086F6C65648F
:1023C0005F7461736B0000005D0E00086C65645FF4
:1023D0007461736B00000000D118000870B50546E9
:1023E00086B0012144F20400FEF796FD4FF4007020
:1023F000ADF8100003248DF8124018201D4E8DF802
:10240000130004A93046FEF7B6F93015ADF81000F8
:1024100004208DF8130004A93046FEF7ACF92520FE
:102420008DF814008DF815408DF8164001208DF8B8
:10243000170005A8FEF73CFC0020ADF80400ADF83D
:102440000600ADF80800ADF80C000C200A4CADF801
:102450000A00009569462046FEF77AFF012240F205
:1024600025512046FEF75BFF01212046FEF72EFF97
:1024700006B070BD0008014000380140D0E90132CB
:1024800001699A60D0E901235A604A68824201D109
:1024900082684A60002202610868401E086008687D
:1024A000704700F108014FF0FF32C0E90112C1602E
:1024B000016100210160704700210161704730B562
:1024C0000C68621C02D000F1080202E0026904E01C
:1024D0001A4653681D68A542FAD953684B60996043
:1024E0008A60516008610168491C016030BD426822
:1024F0004A6093688B6093685960916008610168D5
:10250000491C016070470000502080F31188BFF320
:102510004F8FBFF36F8F09494868401C48600128FE
:102520000AD10748006810F0FF0F05D04FF4B372CE
:1025300004A10FA0FDF7C0BE70470000C00000203E
:1025400004ED00E02E2E5C4672656552544F535CDC
:10255000706F727461626C655C525644535C415298
:102560004D5F434D335C706F72742E63000000004A
:102570004572726F723A25732C25640D0A000000B3
:1025800010B5084C606828B940F26D1206A111A080
:10259000FDF792FE6068401E606001D180F31188F3
:1025A00010BD0000C00000202E2E5C4672656552F2
:1025B000544F535C706F727461626C655C52564428
:1025C000535C41524D5F434D335C706F72742E63A8
:1025D000000000004572726F723A25732C25640D5D
:1025E0000A00000070B500282AD0164DA0F108049A
:1025F0006068E968084205D14FF48B7212A11CA0F3
:10260000FDF75AFE206828B140F217120EA118A05B
:10261000FDF752FE6068E968084211D02268002A7E
:102620000ED18843606000F003FA6068696808446E
:1026300068602046FFF73EFBBDE8704000F0DEBE5C
:1026400070BD0000A80000202E2E5C467265655209
:10265000544F535C706F727461626C655C4D656D54
:102660004D616E675C686561705F342E63000000C9
:102670004572726F723A25732C25640D0A000000B2
:102680004FF0E02000210161816105494FF47A7229
:102690000968B1FBF2F1491E4161072101617047F0
:1026A0000000002010B5FDF7E1FD104C10280CD300
:1026B00000F1E02090F8F0032178884205D240F242
:1026C000A5220BA115A0FDF7F7FD18480068A16829
:1026D00000F4E060884207D9BDE8104040F2B5221E
:1026E00003A10EA0FDF7E8BD10BD0000C000002052
:1026F0002E2E5C4672656552544F535C706F727437
:1027000061626C655C525644535C41524D5F434D6F
:10271000335C706F72742E63000000004572726F3C
:10272000723A25732C25640D0A0000000CED00E0C0
:1027300010B5074B002253F832401CB1521C082A36
:10274000F9D310BD43F8321003EBC201486010BD4D
:102750009401002070B515460E460446FFF7D4FEDE
:1027600094F944100020491C01D184F8440094F9E4
:102770004510491C01D184F84500FFF701FFA06B0B
:1027800028B92A46314604F1240000F0D9F8204641
:10279000BDE87040FFF7C8BC10B5040012D00E4968
:1027A000096B29B140F23C520CA111A0FDF784FD48
:1027B00000F03EF900212046FFF7A6F800F01EFECB
:1027C000002807D10E494FF080500860BFF34F8FAB
:1027D000BFF36F8F10BD0000580000202E2E5C4606
:1027E00072656552544F535C7461736B732E630052
:1027F0004572726F723A25732C25640D0A00000031
:1028000004ED00E070B50446FFF77EFE234D04B9E9
:102810002C68201DFFF732FE58B9E06A204A00EB11
:10282000800152F8211021B9012181402869884393
:102830002861A06A18B104F11800FFF71FFE686A4A
:10284000401C68622868844207D1211D1548FFF7A3
:102850004EFE6868401C686007E0A868401EA860DB
:102860002046FFF762F9FFF7BDFBFFF789FE6869B5
:10287000002812D0286884420FD1286B28B140F27A
:10288000D24209A10DA0FDF717FD10494FF080506D
:102890000860BFF34F8FBFF36F8F70BD58000020EB
:1028A000D4010020900400202E2E5C4672656552F3
:1028B000544F535C7461736B732E63004572726F77
:1028C000723A25732C25640D0A00000004ED00E027
:1028D00002490A6A0260C9684160704758000020D6
:1028E00001490120C86170475800002070B50D46AD
:1028F000040005D140F6CE3207A10CA0FDF7DCFCA8
:102900000E48016820461831FFF7D9FD2846BDE87A
:1029100070400121FEF7F8BF2E2E5C4672656552AD
:10292000544F535C7461736B732E63004572726F06
:10293000723A25732C25640D0A000000580000200F
:1029400070B514460E46050005D140F6F93209A1CE
:102950000DA0FDF7B1FC1048016828461831FFF7BB
:10296000C6FD0CB14FF0FF3621463046BDE8704041
:10297000FEF7CABF2E2E5C4672656552544F535CFB
:102980007461736B732E63004572726F723A2573B4
:102990002C25640D0A000000580000201CB51748C3
:1029A0000024CDE900402346822215A1164800F0FC
:1029B000CBFB012803D100F0D7FD01280AD0401C31
:1029C0001BD102B04FF40262BDE810400FA114A069
:1029D000FDF772BC502080F31188BFF34F8FBFF317
:1029E0006F8F06484FF0FF312C3881620121416121
:1029F000C460BDE81C4000F061B81CBD840000202C
:102A000049444C45000000008D1B00082E2E5C46FA
:102A100072656552544F535C7461736B732E63001F
:102A20004572726F723A25732C25640D0A000000FE
:102A30000248016B491C01637047000058000020E8
:102A400070B5134D286B10B10120E86170BD0020F6
:102A5000E86128690F4EB0FA80F0C0F11F0000EB6A
:102A6000800456F8240028B940F6B7320AA10FA016
:102A7000FDF722FC06EB840000F10802416849687A
:102A80004160914201D149684160C868286070BDC9
:102A900058000020D40100202E2E5C46726565523D
:102AA000544F535C7461736B732E63004572726F85
:102AB000723A25732C25640D0A0000007CB52A4D5E
:102AC00028780190FF20287028788DF800009DF864
:102AD00000009DF8001000F0F000884205D04FF48F
:102AE0008A7222A12CA0FDF7E7FB9DF800002E4C76
:102AF00000F0500020700720A06006E0401EA0609B
:102B00009DF8000040008DF800009DF800000006D0
:102B1000A068F3D403280ED040F2271213A11EA000
:102B2000FDF7CAFBA068032805D04FF498720FA1E7
:102B300019A0FDF7C1FB207A000200F4E060A0605C
:102B4000019828701948016841F47001016001681A
:102B500041F070410160FFF793FD00206060FDF7D8
:102B60004FFB00207CBD000000E400E02E2E5C4600
:102B700072656552544F535C706F727461626C651C
:102B80005C525644535C41524D5F434D335C706F11
:102B900072742E63000000004572726F723A2573E2
:102BA0002C25640D0A000000C000002020ED00E08C
:102BB00010B5502080F31188BFF34F8FBFF36F8F94
:102BC00000F002FB18B104494FF08050086000206B
:102BD00080F3118810BD000004ED00E02DE9F04104
:102BE00017460E46050005D14FF4BB7210A115A083
:102BF000FDF762FBBEB105FB06F05430FFF7D0FADB
:102C000004000ED004F154007EB12060C4E90F56D8
:102C10002046012100F01EF884F850700021204663
:102C2000A164BDE8F0810020E7E72460EEE7000042
:102C30002E2E5C4672656552544F535C71756575F6
:102C4000652E63004572726F723A25732C25640DF0
:102C50000A00000070B50D46040005D140F20312D1
:102C60001CA121A0FDF728FBFFF74EFCD4E90F20A3
:102C7000216802FB0011A1600021A163216861604D
:102C80000A46D4E90F01401E00FB0121E160214604
:102C90004FF0FF3001F8440F487004F110004DB1BF
:102CA000FFF7FFFB04F12400FFF7FBFBFFF768FCD5
:102CB000012070BD21690029F8D000F053FB0028E5
:102CC000F4D00D494FF080500860BFF34F8FBFF331
:102CD0006F8FEBE72E2E5C4672656552544F535C46
:102CE00071756575652E63004572726F723A257352
:102CF0002C25640D0A00000004ED00E02DE9FF4FD3
:102D000083B01F468B4604004FF0000605D140F209
:102D1000F12253A157A0FDF7CFFABBF1000F07D165
:102D2000206C28B140F2F2224DA152A0FDF7C4FA66
:102D3000022F08D1E06B012805D040F2F32248A110
:102D40004CA0FDF7B9FA00F02BFA38B9059828B174
:102D500040F2F62242A147A0FDF7AEFA4FF0000A7A
:102D60004FF08058DFF81C91FFF7CEFBA06BE16BB2
:102D7000884205D3022F03D0059820B336B329E04B
:102D8000A56B3A4659462046FEF799FEA16C39B12B
:102D9000022F00D18DB939462046FEF7DBFF05E052
:102DA000616A19B104F1240000F0DCFA28B1C9F815
:102DB0000080BFF34F8FBFF36F8FFFF7E1FB012060
:102DC00007B0BDE8F08FFFF7DBFB21E06846FFF7B7
:102DD0007FFD0126FFF7D4FBFFF72AFEFFF794FBE8
:102DE00094F94400401C01D184F844A094F94500B2
:102DF000401C01D184F845A0FFF7C2FB05A9684635
:102E000000F05AF930B12046FFF78EF900F0F6FADB
:102E10000020D5E7FFF778FBA06BE16B884201D17A
:102E2000012500E00025FFF7ABFB95B104F1100090
:102E30000599FFF75BFD2046FFF776F900F0DEFA13
:102E4000002891D1C9F80080BFF34F8FBFF36F8F77
:102E50008AE72046FFF768F900F0D0FA84E700001F
:102E60002E2E5C4672656552544F535C71756575C4
:102E7000652E63004572726F723A25732C25640DBE
:102E80000A00000004ED00E02DE9F04798461546E1
:102E90008946040005D140F2C3322AA12EA0FDF7D5
:102EA0000BFAB9F1000F07D1206C28B14FF4717201
:102EB00024A129A0FDF700FAB8F1020F08D1E06BB8
:102EC000012805D040F2C5321EA123A0FDF7F4F978
:102ED000FFF7E8FB5020EFF3118780F31188BFF371
:102EE0004F8FBFF36F8FA06BE16B884207D3B8F1B0
:102EF000020F04D0002087F31188BDE8F08794F911
:102F00004560424649462046FEF7D9FD701C04D074
:102F1000761C84F845600120EDE7A06C012620B105
:102F200041462046FEF716FF06E0606A0028F2D010
:102F300004F1240000F016FA0028ECD0002DEAD0AD
:102F40002E60E8E72E2E5C4672656552544F535C46
:102F500071756575652E63004572726F723A2573DF
:102F60002C25640D0A0000002DE9F74783B08A463E
:102F700004004FF0000605D14FF4A06244A149A01F
:102F8000FDF79AF9BAF1000F07D1206C28B140F291
:102F900004523FA143A0FDF78FF900F001F938B9C1
:102FA000059828B140F2095239A13EA0FDF784F9F5
:102FB00000274FF08058DFF8FC90FFF7A5FAA56BCB
:102FC000C5B151462046FEF767FD6D1EA563206919
:102FD00050B104F1100000F0C5F928B1C9F8008023
:102FE000BFF34F8FBFF36F8FFFF7CAFA012006B010
:102FF000BDE8F087059808B11EB106E0FFF7C0FAFA
:1030000027E06846FFF764FC0126FFF7B9FAFFF7EF
:103010000FFDFFF779FA94F94400401C01D184F8C0
:10302000447094F94500401C01D184F84570FFF7C5
:10303000A7FA05A9684600F03FF8002820460AD004
:10304000FFF772F800F0DAF92046FEF775FE002867
:10305000B3D00020CBE7FEF76FFE90B104F124005F
:103060000599FFF743FC2046FFF75EF800F0C6F92C
:103070000028A2D1C9F80080BFF34F8FBFF36F8F34
:103080009BE72046FFF750F800F0B8F995E70000FD
:103090002E2E5C4672656552544F535C7175657592
:1030A000652E63004572726F723A25732C25640D8C
:1030B0000A00000004ED00E02DE9F0410C46050097
:1030C00005D140F6944216A11AA0FDF7F5F82CB9E7
:1030D00040F6954212A117A0FDF7EEF8FFF714FA9B
:1030E000184EF1686B682268C81A571C07D02F6801
:1030F000366AB74209D08B4207D8012400E0002489
:10310000FFF73EFA2046BDE8F081824205D9101A49
:1031100020602846FFF7DCFBF1E700202060ECE7A9
:103120002E2E5C4672656552544F535C7461736B0E
:10313000732E63004572726F723A25732C25640DED
:103140000A000000580000202DE9FF5F8346DDE9FA
:103150000E87994616468A469000FFF721F805002B
:103160001AD05C20FFF71CF8040012D02563002160
:10317000CDE90241CDE900874B46324651465846DB
:10318000FEF732FD2046FEF7F7FB012004B0BDE854
:10319000F09F2846FFF726FA4FF0FF30F6E70000D1
:1031A0000548416919B1006B18B100207047012032
:1031B0007047022070470000580000200148C06896
:1031C00070470000580000202DE9F0412D4F0026E7
:1031D000386B40B1B869401CB861F86900B101268C
:1031E0003046BDE8F081FD686D1CFD6011D1786B43
:1031F000006828B140F67F2223A128A0FDF75CF8E3
:10320000786BB96B7963B863386A401C3862FEF733
:10321000E9FEB86ADFF89480854209D3786B0068CC
:1032200080B1786BC068C468606885420DD2B862AE
:103230003868C06A00EB800158F821000128CCD919
:103240000126CAE74FF0FF30F1E7201DFFF716F91E
:10325000A06A18B104F11800FFF710F9E06A012123
:103260003A6981401143396100EB800108EB81002C
:10327000211DFFF73CF9E06A3968C96A8842CDD35D
:103280000126CBE7580000202E2E5C467265655261
:10329000544F535C7461736B732E63004572726F8D
:1032A000723A25732C25640D0A000000D401002019
:1032B00070B504004FF000063CD01F4D28688442D2
:1032C00005D040F6D1721DA121A0FCF7F5FF206DBD
:1032D00028B940F6D27219A11DA0FCF7EDFF206DB0
:1032E000401E2065E26CE16A914223D010BB201D94
:1032F000FFF7C4F81A49012250B9E06A00EB8003D5
:1033000051F8233023B92B6902FA00F083432B6173
:10331000E06CE062C0F12000A061E06A2B698240AD
:103320001A432A6100EB800001EB8000211DFFF7AA
:10333000DEF80126304670BD580000202E2E5C4677
:1033400072656552544F535C7461736B732E6300E6
:103350004572726F723A25732C25640D0A000000C5
:10336000D40100202DE9F041C068C4682CB940F6B2
:10337000294216A11AA0FCF79FFF04F11800074686
:10338000FFF77CF81A4D286B012660B139461948C1
:10339000FFF7ADF8E06A2968C96A884213D90120AD
:1033A000EE61BDE8F081201DFFF768F8E06A2A6948
:1033B00006FA00F1114329610F4900EB800001EB8F
:1033C0008000211DE4E70020EBE700002E2E5C4684
:1033D00072656552544F535C7461736B732E630056
:1033E0004572726F723A25732C25640D0A00000035
:1033F000580000207C040020D40100202DE9F04773
:103400002B4D00242746286B28B940F6850229A1B8
:103410002DA0FCF751FFFFF777F8286B401E2863BB
:10342000286BE8BBA8682C490126C8B3A1F52A7906
:103430008846D8F80010E9B1D8F80C00C46804F147
:103440001800FFF71BF8201DFFF718F8E06A2A693B
:1034500006FA00F11143296100EB800109EB8100BC
:10346000211DFFF744F8E06A2968C96A8842E0D361
:10347000EE61DEE70CB1FEF7B5FDAC693CB1FFF7DC
:10348000A3FE00B1EE61641EF9D10020A861E869D5
:1034900030B11249012738070860BFF34F8F00E0B1
:1034A00001E0BFF36F8FFFF76BF83846BDE8F08798
:1034B000580000202E2E5C4672656552544F535CB6
:1034C0007461736B732E63004572726F723A257369
:1034D0002C25640D0A0000007C04002004ED00E0AF
:1034E0002DE9F0470746994616460D462C20DDF893
:1034F00020A0FEF755FE04001ED0B84600204F461F
:1035000084F82800D1462DB940F265120CA112A012
:10351000FCF7D2FEFEF798FA04F11801C4F8008017
:1035200081E8A002201DFEF7C7FF2EB194F8280005
:1035300040F0040184F828102046BDE8F087000020
:103540002E2E5C4672656552544F535C74696D65EE
:1035500072732E63000000004572726F723A257319
:103560002C25640D0A0000001CB50024FEF76CFA3F
:103570000C48006868B10B491F20091DCDE9000106
:1035800000234FF4827208A10948FFF7DDFD040013
:1035900005D140F2131207A10CA0FCF78DFE2046C6
:1035A0001CBD000094000020546D7220537663000F
:1035B000012100082E2E5C4672656552544F535C03
:1035C00074696D6572732E63000000004572726F3E
:1035D000723A25732C25640D0A0000002DE9FF477F
:1035E000DDF830A0994690460D4606004FF00007E2
:1035F00005D14FF4C17212A117A0FCF75DFE1A4C61
:10360000206880B1CDE900580296062D11DAFFF747
:10361000C7FD02284FF0000309D000226946206848
:10362000FFF76CFB074604B03846BDE8F08752460A
:10363000F4E700234A466946FFF726FCF2E700005C
:103640002E2E5C4672656552544F535C74696D65ED
:1036500072732E63000000004572726F723A257318
:103660002C25640D0A0000009400002000000000DA
:1036700000000000002F00000000070007000014F9
:103680007F147F1400242A7F2A1200626408132307
:1036900000364955225000000503000000001C229E
:1036A0004100000041221C000014083E08140008DC
:1036B000083E0808000000A060000008080808088C
:1036C000000060600000002010080402003E514924
:1036D000453E0000427F40000042615149460021C2
:1036E00041454B31001814127F10002745454539DC
:1036F000003C4A4949300001710905030036494937
:10370000493600064949291E0000363600000000EF
:10371000563600000008142241000014141414143A
:1037200000004122140800020151090600324959E3
:10373000513E007C1211127C007F49494936003EFF
:1037400041414122007F4141221C007F49494941BA
:10375000007F09090901003E4149497A007F0808B4
:10376000087F0000417F4100002040413F01007F71
:1037700008142241007F40404040007F020C027F3D
:10378000007F0408107F003E4141413E007F09094F
:103790000906003E4151215E007F09192946004675
:1037A000494949310001017F0101003F4040403F4C
:1037B000001F2040201F003F4038403F0063140896
:1037C0001463000708700807006151494543000071
:1037D0007F41410000552A552A55000041417F0094
:1037E0000004020102040040404040400000010289
:1037F0000400002054545478007F48444438003872
:103800004444442000384444487F003854545418F9
:1038100000087E0901020018A4A4A47C007F08040B
:1038200004780000447D4000004080847D00007FDB
:10383000102844000000417F4000007C04180478F8
:10384000007C0804047800384444443800FC2424F4
:1038500024180018242418FC007C080404080048DC
:103860005454542000043F444020003C4040207CFD
:10387000001C2040201C003C4030403C00442810EC
:103880002844001CA0A0A07C004464544C441414A0
:1038900014141414000000000000000000000000D8
:1038A00000000000000000F80000000000000033ED
:1038B0003000000000100C06100C06000000000094
:1038C0000000000040C07840C0784000043F04047D
:1038D0003F040400007088FC08300000001820FF3E
:1038E000211E0000F008F000E018000000211C0379
:1038F0001E211E0000F00888700000001E212324F5
:103900001927211010160E00000000000000000012
:1039100000000000000000E01804020000000007A2
:103920001820400000020418E000000000402018A9
:1039300007000000404080F0804040000202010F7C
:1039400001020200000000F0000000000101011F60
:1039500001010100000000000000000080B07000C4
:103960000000000000000000000000000001010154
:1039700001010101000000000000000000303000E3
:1039800000000000000000008060180400601806BD
:103990000100000000E010080810E000000F1020F7
:1039A00020100F00001010F8000000000020203F41
:1039B00020200000007008080888700000302824CB
:1039C000222130000030088888483000001820206C
:1039D00020110E000000C02010F800000007042491
:1039E000243F240000F808888808080000192120D6
:1039F00020110E0000E0108888180000000F112030
:103A000020110E0000380808C83808000000003FE8
:103A1000000000000070880808887000001C222147
:103A200021221C0000E010080810E00000003122F4
:103A300022110F00000000C0C00000000000003094
:103A400030000000000000800000000000008060E6
:103A50000000000000008040201008000001020467
:103A6000081020004040404040404000040404044E
:103A7000040404000008102040800000002010080A
:103A800004020100007048080808F000000000303F
:103A900036010000C030C828E810E00007182724CD
:103AA00023140B000000C038E0000000203C23027B
:103AB0000227382008F8888888700000203F2020DE
:103AC00020110E00C0300808080838000718202010
:103AD0002010080008F808080810E000203F202007
:103AE00020100F0008F88888E8081000203F2020E8
:103AF0002320180008F88888E8081000203F2000DC
:103B000003000000C0300808083800000718202013
:103B1000221E020008F808000008F808203F2101D2
:103B200001213F20000808F8080800000020203F7D
:103B30002020000000000808F8080800C0808080ED
:103B40007F00000008F888C028180800203F2001E6
:103B50002638200008F8080000000000203F202040
:103B60002020300008F8F800F8F80800203F003F57
:103B7000003F200008F830C00008F808203F20006F
:103B800007183F00E01008080810E0000F10202080
:103B900020100F0008F808080808F000203F210155
:103BA00001010000E01008080810E0000F182424AC
:103BB00038504F0008F8888888887000203F20001F
:103BC000030C3020007088080808380000382021D5
:103BD00021221C00180808F8080818000000203FDF
:103BE0002000000008F808000008F808001F202046
:103BF00020201F000878880000C838080000073817
:103C00000E010000F80800F80008F800033C070067
:103C1000073C0300081868808068180820302C03CF
:103C2000032C30200838C800C83808000000203FA6
:103C30002000000010080808C83808002038262195
:103C400020201800000000FE020202000000007F99
:103C500040404000000C30C00000000000000001A7
:103C60000638C00000020202FE0000000040404092
:103C70007F000000000004020202040000000000B7
:103C80000000000000000000000000008080808034
:103C9000808080800002020400000000000000001C
:103CA00000000000000080808080000000192422B5
:103CB00022223F2008F8008080000000003F1120F1
:103CC00020110E000000008080800000000E1120F6
:103CD00020201100000000808088F800000E1120D4
:103CE00020103F200000808080800000001F2222E2
:103CF00022221300008080F0888888180020203F4E
:103D0000202000000000808080808000006B949460
:103D10009493600008F8008080800000203F21001C
:103D200000203F2000809898000000000020203FE5
:103D300020200000000000809898000000C08080D3
:103D4000807F000008F8000080808000203F24026F
:103D50002D302000000808F8000000000020203F5F
:103D6000202000008080808080808000203F200014
:103D70003F20003F8080008080800000203F2100A5
:103D800000203F200000808080800000001F202055
:103D900020201F00808000808000000080FFA12084
:103DA00020110E000000008080808000000E112095
:103DB00020A0FF80808080008080800020203F2124
:103DC00020000100000080808080800000332424D7
:103DD00024241900008080E0808000000000001F83
:103DE000202000008080000000808000001F202034
:103DF00020103F20808080000080808000010E30F5
:103E00000806010080800080008080800F300C0355
:103E10000C300F0000808000808080000020312E58
:103E20000E312000808080000080808080818E7034
:103E30001806010000808080808080000021302CE6
:103E40002221300000000000807C020200000000FF
:103E5000003F404000000000FF00000000000000A4
:103E6000FF0000000002027C800000000040403F94
:103E7000000000000006010102020404000000002E
:103E800000000000524632344C3031206973206EFD
:103E90006F742066696E6420212E2E2E00000000B3
:103EA000C03E000800000020CC0000006C010008AB
:103EB0008C3F0008CC000020745A000088010008E4
:103EC00000A24A04000000000000000001020304F8
:103ED00006070809000000000000000000000000C4
:103EE00000000000000000000000000000000000D2
:103EF00001000000843E00080000000000000000F7
:103F00000000000002040608000000000102030493
:103F10000102030406070809000000000000000079
:103F20000000000000000000000000000000000091
:103F30000000000000000000000000000000000081
:103F40000000000000000000000000000000000071
:103F50000000000000000000000000000000000061
:103F60000000000000000000000000000000000051
:103F70000000000000000000000000000000000041
:0C3F800000000000AAAAAAAA000000008D
:040000050800027578
:00000001FF
