:020000040800F2
:10000000385B0020750200088B0800081B080008F8
:10001000890800083D07000875100008000000006E
:10002000000000000000000000000000DD010008EA
:10003000750700080000000021020008690E000892
:100040008F0200088F0200088F0200088F0200084C
:100050008F0200088F0200088F0200088F0200083C
:100060008F0200088F0200088F0200088F0200082C
:100070008F0200088F0200088F0200088F0200081C
:100080008F0200088F0200088F0200088F0200080C
:100090008F0200088F0200088F0200088F020008FC
:1000A0008F0200088F0200088F0200088F020008EC
:1000B0008F0200088F0200088F0200088F020008DC
:1000C0008F0200088F0200088F0200088F020008CC
:1000D0008F020008CD0E00088F0200088F02000872
:1000E0008F0200088F0200088F0200088F020008AC
:1000F0008F0200088F0200088F0200088F0200089C
:100100008F0200088F0200088F0200088F0200088B
:100110008F0200088F0200088F0200088F0200087B
:100120008F0200088F0200088F0200088F0200086B
:1001300000F002F800F042F80AA090E8000C8244B7
:100140008344AAF10107DA4501D100F037F8AFF294
:10015000090EBAE80F0013F0010F18BFFB1A43F0A5
:10016000010318478C310000AC310000103A24BF65
:1001700078C878C1FAD8520724BF30C830C144BF0C
:1001800004680C607047000000230024002500264E
:10019000103A28BF78C1FBD8520728BF30C148BFEA
:1001A0000B607047642900F0F180732900F0FE8134
:1001B000002070471FB51FBD10B510BD00F08BFAB1
:1001C0001146FFF7F7FF01F0C5F900F0A9FA03B4F3
:1001D000FFF7F2FF03BC00F0A3FF0000224B1968F9
:1001E0000868B0E8F00F80F30988BFF36F8F4FF015
:1001F000000080F311884EF00D0E704700000000E3
:1002000006480068006880F3088862B661B6BFF3EC
:100210004F8FBFF36F8F00DF00BF00BF08ED00E01E
:10022000EFF30980BFF36F8F0F4B1A6820E9F00FCF
:10023000106008B54FF0500080F31188BFF34F8F66
:10024000BFF36F8F02F020FA4FF0000080F31188A7
:10025000BDE8084019680868B0E8F00F80F3098825
:10026000BFF36F8F704700BF50000020EFF3058091
:10027000704700000948804709480047FEE7FEE74D
:10028000FEE7FEE7FEE7FEE7FEE7FEE7FEE7FEE746
:1002900004480549054A064B704700007D0E0008DA
:1002A0003101000838550020385B00203857002005
:1002B00038570020704700000FB4044910B503AA56
:1002C000029800F077F910BC5DF814FB38000020AC
:1002D0002DE9F0410E460446002020622046E168E8
:1002E000884730B3252805D0D4E901219047206AFA
:1002F000401CF2E7E168204600278847050018D037
:10030000A5F14100192802D820354FF40067324684
:10031000294620462760FFF745FF40B1012804D059
:10032000F61D26F007060836D8E7361DD6E728461C
:10033000DAE7206ABDE8F08170B50C460546012A6F
:1003400005D02878800600D5EA69002302E0012361
:1003500005E05B1C934202D2E05C0028F9D1A86959
:10036000E618C01AA861286A184428622846AFF324
:10037000008004E0D5E9012114F8010B9047B44254
:10038000F8D32846AFF3008070BD00002DE9F0419E
:100390000646002410687529314616A510D0AFF323
:1003A0000080002802DA404213A507E031688A077E
:1003B00001D512A502E0490704D511A5012401E0E9
:1003C000AFF3008000210A2206F1240709E0B0FB08
:1003D000F2FCB0FBF2F302FB1C00303078541846FC
:1003E000491C0028F3D123462A463046BDE8F04197
:1003F00000F059B8000000002D0000002B000000A4
:1004000020000000032A40F2308010F0030C00F0BE
:10041000158011F8013BBCF1020F624498BF11F83E
:1004200001CB00F8013B38BF11F8013BA2F10402F7
:1004300098BF00F801CB38BF00F8013B11F003036F
:1004400000F0CA80083AC0F0088051F8043B083A2E
:1004500051F804CBA0E80810F5E7121D5CBF51F875
:10046000043B40F8043BAFF30080D20724BF11F8EF
:10047000013B11F801CB48BF11F8012B24BF00F854
:10048000013B00F801CB48BF00F8012B704702F098
:10049000FF0343EA032242EA024200F0D1B8704768
:1004A0007047704770472DE9F0470D4699469246D0
:1004B000044600F124080168880604D5E06921F0AB
:1004C0001001216000E00120A84201DD471B00E08F
:1004D0000027A1697A1902EB0900081AA0612078A7
:1004E000C00602D42046AFF30080002608E0D4E91D
:1004F00001211AF806009047206A401C761C2062F1
:100500004E45F4DB2078C0060AD52046AFF30080C4
:1005100006E0D4E9012130209047206A401C206287
:10052000381EA7F10107F4DC07E0D4E9012118F82F
:1005300005009047206A401C2062281EA5F1010595
:10054000F3DC2046AFF300802078000602D50220BD
:10055000BDE8F0870120FBE701694A1C02610878C9
:10056000704700B58FB0CDE90131002105910549F3
:100570007944CDE9031011466846FFF7A9FE0FB094
:1005800000BD0000E5FFFFFF10B5436913B1AFF3F5
:10059000008001E0FFF7D0FE012010BD127800F1CD
:1005A00024010A7000224A700122EDE711684FF021
:1005B000FF32E9E7074B70B50D467B44FFF7D1FFEB
:1005C0000446284600F05CF810B14FF0FF3070BDD3
:1005D000204670BD5B0F000010B5203AC0F00B80C4
:1005E000B1E81850203AA0E81850B1E81850A0E837
:1005F0001850BFF4F5AF5FEA027C24BFB1E8185091
:10060000A0E8185044BF18C918C0BDE810405FEA00
:10061000827C24BF51F8043B40F8043B08BF70477C
:10062000D20728BF31F8023B48BF11F8012B28BF81
:1006300020F8023B48BF00F8012B70474FF0000242
:100640000429C0F0128010F0030C00F01F80CCF1E0
:10065000040CBCF1020F18BF00F8012BA8BF20F852
:10066000022BA1EB0C0100F011B85FEAC17C24BFA2
:1006700000F8012B00F8012B48BF00F8012B704750
:10068000007B00F0800070474FF0000200B5134679
:1006900094469646203922BFA0E80C50A0E80C50A2
:1006A000B1F12001BFF4F7AF090728BFA0E80C5053
:1006B00048BF0CC05DF804EB890028BF40F8042B4C
:1006C00008BF704748BF20F8022B11F0804F18BFB9
:1006D00000F8012B7047754600F02CF8AE46050077
:1006E0006946534620F00700854618B020B5FFF74D
:1006F000CFFDBDE820404FF000064FF000074FF05F
:1007000000084FF0000B21F00701AC46ACE8C0092F
:10071000ACE8C009ACE8C009ACE8C0098D46704738
:1007200010B50446AFF300802046BDE81040FFF747
:100730004EBD000000487047D8540020FEE700007E
:100740001CB507490120CDE900010023802205A145
:10075000074802F01DFBBDE81C4001F043BF00004C
:100760001400002073746172745F7461736B000015
:10077000451F00087047F0B5CC78002204F00F0345
:10078000E40601D58C7823430C784FF00F0C14F05D
:10079000FF0F4FF0010E1BD005680E880EFA02F411
:1007A0002640A64210D196000CFA06F725EA070764
:1007B00003FA06F5CE783D43282E02D0482E02D00B
:1007C00002E0446100E00461521C082AE5D30560A0
:1007D0000A88FF2A1CD94468002202F108060EFA92
:1007E00006F50E882E40AE420ED196000CFA06F7A2
:1007F000BC4303FA06F7CE783C43282E00D145616E
:10080000CE78482E00D10561521C082AE5D34460F9
:10081000F0BD4161704701617047FEE710B5094CBA
:1008200040212046FFF7F7FF80212046FFF7F3FF26
:1008300080212046FFF7EDFF2046BDE81040402113
:10084000FFF7E7BF0014014010B5074C40212046D8
:10085000FFF7E1FF80212046FFF7DBFF2046BDE8E0
:1008600010408021FFF7D7BF0014014010B5054CA0
:1008700040212046FFF7CFFF2046BDE81040402131
:10088000FFF7C7BF00140140FEE7704770B500F0E6
:10089000700500F079F80A4C0646E06820F0800008
:1008A000E060272000F0F6FD45EA060000F0F2FDCA
:1008B000E06840F08000E060BDE8704000F064B89F
:1008C00000200140F8B501210D02284600F06AF928
:1008D00010208DF803000126124C8DF80260ADF84F
:1008E000005069462046FFF746FF29462046FFF79D
:1008F00092FF48208DF803008DF802604020ADF88B
:10090000000069462046FFF736FF40212046FFF7EA
:1009100082FFE06820F48070E060E06840F08000D2
:10092000E060F8BD002001402DE9F0410C4F0E467B
:100930001546F96821F08001F96000F0ABFD002454
:1009400005E0FF2000F0A6FD3055641CE4B2AC4287
:10095000F7D3F86840F08000F860BDE8F08100004F
:100960000020014010B5074CE16821F08001E160F2
:1009700000F090FDFF2000F08DFDE16841F0800166
:10098000E16010BD0020014010B5064CE06820F089
:100990008000E060072000F07DFDE16841F080010B
:1009A000E16010BD00200140052A00D9052205287C
:1009B00000D905200A30C0B200F008B8052900D9D6
:1009C00005210A4601461020AFF300802DE9F041D1
:1009D0000C4F0E461546F96821F08001F96040F091
:1009E000200000F057FD002404E0305D00F052FDCF
:1009F000641CE4B2AC42F8D3F86840F08000F860C0
:100A0000BDE8F0810020014070B5094C0D46E16859
:100A100021F08001E16040F0200000F03BFD28461D
:100A200000F038FDE06840F08000E06070BD00003C
:100A3000002001402DE9FF411AA01C4ED0E9001012
:100A4000CDE90010002002906D4602AF4FF4FA6825
:100A50000390052269461020FFF7B8FF052202A97E
:100A60001020FFF761FF0024285D395D884204D023
:100A70001F21706800F038FD03E0641CE4B2052C0F
:100A8000F2D3052C07D01A21306800F02DFD404626
:100A900000F06CFBDDE71F21706800F025FDBDE86C
:100AA000FF810000A5A5A5A5A50000002800002045
:100AB000FEE7000030B50F23C27801780125F2B1BE
:100AC000144A126801F1E02102F4E062C2F5E0622A
:100AD000120AC2F10404D3404278A24084781C4038
:100AE0001443220181F80024007800F01F018D409A
:100AF0004009800000F1E020C0F8005130BD01F055
:100B00001F0085404809800000F1E020C0F88051B6
:100B100030BD00000CED00E00249084302490860C6
:100B2000704700000000FA050CED00E070B50025EC
:100B3000002105F1B00000F016F80021022000F0BD
:100B400012F80021102000F00EF8002401210020EE
:100B500000F009F8641CE4B2802CF7D36D1CEDB2F0
:100B6000082DE5D370BDC0B209B100F0C2BA00F0E3
:100B7000A9BAFEE7044A0029D16901D0014300E087
:100B80008143D1617047000000100240044A0029EF
:100B9000116901D0014300E08143116170470000F9
:100BA00000100240044A0029916901D0014300E08D
:100BB000814391617047000000100240044A0029FF
:100BC000D16801D0014300E08143D160704700004B
:100BD0000010024030B5204A5168204B11F00C0142
:100BE00003D0042901D0082901D0036012E0516824
:100BF000536801F470114FF0020413F4803F04EBCA
:100C0000914102D053689B0301D5154B00E0134B73
:100C10005943016051680F2303EA1111114B5C5CC9
:100C20000168E14041605468072505EA14241C5D11
:100C300021FA04F48460546805EAD4241B5DD94089
:100C4000C1605268032303EA9232064B1B1F9A5C71
:100C5000B1FBF2F1016130BD0010024000127A00D8
:100C600000093D00400000201CB520A0D0E9001084
:100C7000CDE900101F48C16841F48071C160702047
:100C8000FFF704FE01211C20FFF7BEFE07211D20F7
:100C9000FFF7BAFE1C20FFF765FE1D20FFF762FE7E
:100CA0000A210020FFF7B0FE01210846FFF7ACFE45
:100CB00001210220FFF7A8FE03210846FFF7A4FE4A
:100CC000FF210420FFF7A0FE3C210520FFF79CFE3A
:100CD00026210620FFF798FE05216846FFF76EFEE5
:100CE000052269460020FFF75FFE1CBD344310104B
:100CF00001000000002001400029018802D041F0DD
:100D0000400101E021F0400101807047114910B518
:100D100088420AD1841401212046FFF74FFF204664
:100D2000BDE810400021FFF749BF0B49884202D1BE
:100D30000121041404E0094988420AD10121C413A5
:100D40002046FFF723FF2046BDE810400021FFF7B3
:100D50001DBF10BD0030014000380040003C004085
:100D60000246002012890A4200D00120704730B5A7
:100D700002884C8802F441530A88CD8822438C882B
:100D80002C4322430C8922434C8922438C892243E1
:100D9000CC8922431A430280828B22F40062828330
:100DA000098A018230BD00000CB50022264800925D
:100DB0000192016841F4803101604FF4A063016841
:100DC00001F4003101910099491C0091019911B978
:100DD00000999942F3D10168890333D5012101912A
:100DE0001A490A6842F010020A600A6822F00302F7
:100DF0000A600A6842F002020A6041684160416884
:100E00004160416841F480614160416821F47C1196
:100E10004160416841F4E8114160016841F080712E
:100E2000016001688901FCD5416821F0030141603E
:100E3000416841F0020141604168C1F3810102292A
:100E4000FAD10CBD01920CBD0010024000200240FE
:100E50004FF0E0210428086903D020F00400086165
:100E6000704740F00400FAE710B501F0BDFF01281B
:100E700003D0BDE8104001F0BFBC10BD0F4810B555
:100E8000016841F00101016041680D4A1140416073
:100E900001680C4A11400160016821F48021016061
:100EA000416821F4FE0141604FF41F018160FFF7AA
:100EB0007BFF05494FF00060086010BD0010024044
:100EC0000000FFF8FFFFF6FE08ED00E070B5154CDE
:100ED00040F22551204600F03CF800280ED0204674
:100EE00000F0C4F8104AC1B21088030406D44404C8
:100EF0004FF0000306D50A2901D0138070BD40F4DD
:100F000000400DE00D2909D0C0F30D04074D401C31
:100F100080B229551080C728EFD870BD40F48040BA
:100F2000108070BD0038014034000020C400002053
:100F30000029818902D041F4005101E021F40051DF
:100F4000818170470246002012880A4200D00120A9
:100F5000704770B501F01F0501260024C1F342134C
:100F600006FA05F2012B0FD0022B0FD0838A4FEA2D
:100F700011210088134206FA01F600EA060001D0AA
:100F800000B10124204670BD8389F0E7038AEEE7B3
:100F900010B5C1F3421301F01F040121A140012B40
:100FA00007D0022B07D01430002A026805D00A436C
:100FB00004E00C30F8E71030F6E78A43026010BD19
:100FC00030B50446008A85B00D464CF6FF710840E6
:100FD000E98801432182A0894EF6F3110840A988CF
:100FE0002A8911436A8902431143A181A08A4FF6DD
:100FF000FF410840A9890143A1826846FFF7EAFD45
:101000001948844201D1039800E00298A18909049B
:1010100000EBC00101EB0010296801D5490000E098
:101020008900B0FBF1F06422B0FBF2F109010B0979
:101030006FF018056B4300EB8300A3891D044FF08C
:10104000320306D503EBC000B0FBF2F000F007005E
:1010500005E003EB0010B0FBF2F000F00F000843D6
:10106000208105B030BD0000003801408088C0F309
:1010700008007047FEE7000070B5114E044640219D
:101080003046FFF7C6FB002504F0800080284FF0B3
:101090008001304610D0FFF7BCFB6006040E4021F3
:1010A0003046FFF7B8FB40213046FFF7B2FB6D1C1E
:1010B000EDB2082DE8D370BDFFF7ADFBEDE7000002
:1010C0000014014010B50446FFF7A8FB7820FFF795
:1010D000D3FFFFF7CBFB0020FFF7CEFFFFF7C6FBE8
:1010E0002046FFF7C9FFFFF7C1FBBDE81040FFF73F
:1010F000ABBB10B50446FFF791FB7820FFF7BCFFB0
:10110000FFF7B4FB4020FFF7B7FFFFF7AFFB204628
:10111000FFF7B2FFFFF7AAFBBDE81040FFF794BB53
:101120007047000010B50420FFF792FE0C480D49EF
:101130000D4A0068B0FBF1F3B0FBF1F14FF47A70A7
:1011400041431370012050804FF0E020026942F0CB
:10115000020202614161016941F00101016110BDBA
:101160000000002040420F003000002070B504460F
:1011700001F03AFE01280CD0094D6888844203D35F
:10118000B4FBF0F001F02CF96888B4FBF0F100FB3F
:1011900011444FF47A706043BDE8704000F002B82B
:1011A0003000002070B54FF0E02500216C69094A3D
:1011B000AB6912785043AA699A42FCD002D2A3EBE1
:1011C000020302E0A4EB02063344194413468142B1
:1011D000F1D370BD30000020F8B501214FF49470B8
:1011E000FFF7E0FC4FF4FC74ADF8004010208DF8E0
:1011F00003004A4E03258DF8025069463046FFF73A
:10120000BAFA21463046FFF706FB454CADF80050D0
:1012100069462046FFF7AFFA03212046FFF7FBFAA5
:10122000404D4FF40044ADF8004069462846FFF7B2
:10123000A2FA21462846FFF7EEFAC820FFF796FFEC
:101240000021AE20FFF78FFC00210220FFF78BFC6E
:1012500000211020FFF787FC00214020FFF783FCCE
:101260000021B020FFF77FFC00218120FFF77BFCED
:101270000021FF20FFF777FC0021A120FFF773FC7E
:101280000021A620FFF76FFC0021A820FFF76BFCD0
:1012900000213F20FFF767FC0021C820FFF763FC17
:1012A0000021D320FFF75FFC00210846FFF75BFC1D
:1012B0000021D520FFF757FC00218020FFF753FCC9
:1012C0000021D820FFF74FFC00210520FFF74BFC41
:1012D0000021D920FFF747FC0021F120FFF743FC54
:1012E0000021DA20FFF73FFC00211220FFF73BFC32
:1012F0000021DB20FFF737FC00213020FFF733FC13
:1013000000218D20FFF72FFC00211420FFF72BFC7C
:101310000021AF20FFF727FCF8BD000000140140BA
:10132000001001400020014038B501214420FFF7A2
:1013300039FC0120ADF8000028208DF803000324BB
:101340008DF8024069460848FFF715FA1820ADF8F5
:10135000000048208DF803008DF8024069460348DC
:10136000FFF709FA38BD00000008014000180140ED
:1013700038B501214820FFF715FC2024ADF80040C6
:1013800010208DF8030003200B4D8DF802006946F4
:101390002846FFF7F0F920212846FFF73CFAADF880
:1013A0000040064C69462046FFF7E5F9202120461B
:1013B000FFF731FA38BD0000000C01400018014071
:1013C00030B587B001214FF48470FFF7EBFB0120AB
:1013D0008DF8160018208DF817004FF400502A4D94
:1013E000ADF8140005A92846FFF7C5F94FF40040F1
:1013F000ADF8140005A92846FFF7BDF94FF4804465
:10140000ADF8144005A92846FFF7B5F910208DF86E
:10141000170080201D4DADF8140005A92846FFF7E0
:10142000AAF980212846FFF7F6F9194D2846FFF75B
:101430006DFC01212046FFF79DFB00212846FFF7A8
:101440005BFC0020ADF800004FF48271ADF8021093
:10145000ADF808006111ADF80A102821ADF80C10A4
:10146000ADF80600ADF80400ADF80E000720ADF8A9
:10147000100069462846FFF77AFC01212846FFF74D
:101480003BFC07B030BD0000000C014000200140D3
:10149000003800402DE9F041074600244FF6FF7662
:1014A000104D03E0641CA4B2B44205D002212846CA
:1014B000FFF756FC0028F5D038460A4F47F6FF7470
:1014C0000C37388003E0641CA4B2B44205D001217B
:1014D0002846FFF745FC0028F5D03888C0B2BDE8A3
:1014E000F0810000003800402DE9F041094E0C4623
:1014F0000546371D08E080213046FFF723FD002810
:10150000F9D015F8010B3880641EE4B2F3D2BDE8BF
:10151000F08100000038014004490A885206FCD5D9
:10152000024AC1B2121D118070470000003801400C
:101530000A2000F055FFFBE7054C4FF4FA75D4F88C
:101540009401C143C4F89411284600F049FFF6E71E
:101550000080214210B54FF44070FFF7DDFAFFF72D
:10156000E1FD4FF4E13000F059FDFFF7E9F800200C
:1015700010BD00002DE9F041184E0F460446F568F5
:101580003068001D00F09EFD38B9306890F82C10CE
:1015900001208840316981433161601C07D137B136
:1015A0003168BDE8F0410E48091D00F0C4BD306847
:1015B0002C44AC424460316805D2B06BBDE8F041C8
:1015C000091D00F0A0BD706B091D00F09CFDB06A04
:1015D000844200D2B462BDE8F081000050000020D7
:1015E0009C0400202DE9F041054600F0B1FD2D4E90
:1015F000B068401CB06030682B4F10B1706930B3D8
:101600002BE03560B068012827D1002404EB84006A
:1016100007EB800000F069FD641C202CF6D3234802
:1016200000F063FD2148143000F05FFD1F482830B2
:1016300000F05BFD1D483C3000F057FD1B4850306A
:1016400000F053FD194870631430B06305E0306852
:10165000E96AC06A884200D83560706A0121401C7E
:1016600070626864E86A326981401143316100EB5D
:10167000800007EB8000291D00F05DFD00F0A4FD57
:10168000706900280CD03068E96AC06A884207D2C5
:1016900007494FF080500860BFF34F8FBFF36F8F43
:1016A000BDE8F08150000020CC0100204C04002057
:1016B00004ED00E010B500F04BFD0E4C2068A0B921
:1016C0000D4800F012FD0C48143000F00EFD0A48E1
:1016D000E0601430206100221021052001F0A2F802
:1016E000206010B105A100F047FEBDE8104000F0F9
:1016F0006BBD00008C000020B0040020546D7251BE
:101700000000000030B4026C0B46002A0BD0C16808
:101710001144C1608468A14201D30168C16030BC3A
:101720001846FEF76FBE30BC70472DE9F041856B5F
:10173000174604460026026C82B1C7B1E068FEF786
:1017400061FEE168206C091AE1602268914202D2D0
:10175000A168081AE060022F16D017E02068A8B927
:10176000A06801F0C9FB06460020A0600EE060689A
:10177000FEF748FE216C606808446060A1688842FA
:1017800004D32068606001E005B16D1E6D1CA56387
:101790003046BDE8F08110B50446006B00F046FD10
:1017A0002046BDE8104000F041BD000010484FF455
:1017B000A041420706D0C01D0D4920F00700411A84
:1017C000C1F5A0410B4A00230144C2E900030839D6
:1017D000103A21F0070111604B600B600B1AC0E951
:1017E000001393604FF000405360D06070470000DA
:1017F000D8040020B0000020134E144DA6F52F771A
:101800004FF08058DFF8489011E000F0A1FCF0683C
:10181000C468201D00F056FCA868401EA8606868D7
:10182000401E686000F0D0FC2046FFF7B4FF6868F7
:101830000028EAD138680128F9D9C9F80080BFF337
:101840004F8FBFF36F8FF2E7880400205000002015
:1018500004ED00E02DE9F05FDDE90B940E4617463C
:10186000834691009A460A9DA522206BFEF70FFE43
:101870006FF00301206B01EB8701084420F007079C
:10188000780705D040F261321CA121A0FEF714FDBB
:101890004FF0000866B100202218315C82F8341045
:1018A000315C11B1401C1028F6D384F8438001E06C
:1018B00084F83480202D00D31F25E562C4E9135835
:1018C000201D00F01DFC04F1180000F019FC24613B
:1018D000C5F120006462A061C4F8548084F8588087
:1018E00052465946384600F01BFB2060B9F1000F04
:1018F00001D0C9F80040BDE8F09F00002E2E5C46E4
:1019000072656552544F535C7461736B732E630040
:101910004572726F723A25732C25640D0A0000001F
:1019200030B5114900E011460A688242FBD34B688A
:101930005C18844203D140681844486008464368F4
:101940001C18944209D1084C103C2468A24209D0CA
:1019500052681A4442600A6812680260814200D0EC
:10196000086030BD0460F9E7B000002070B50024C5
:1019700041600B4D0061914206D8D11A82699142B3
:1019800006D2011D286907E09A4203D2994201D389
:10199000012403E0011DE86800F0B5FB204670BD9E
:1019A0008C00002010B5044600F0D2FBA06B20B1E3
:1019B000002400F009FC204610BD0124F9E70000D6
:1019C0002DE9F34100980F460026846C2CB940F6AF
:1019D000453216A11AA0FEF76FFCA06BE16B88429E
:1019E00005D340F6463211A115A0FEF765FCA06BA9
:1019F000E16B88420CD294F945503A46694620463C
:101A0000FFF793FE0646681C05D06D1C84F8455010
:101A10003046BDE8FC81606A0028F9D004F124005A
:101A200001F0C4FA0028F3D00126F1E72E2E5C461F
:101A300072656552544F535C71756575652E630010
:101A40004572726F723A25732C25640D0A000000EE
:101A5000F8B5054617480E46C068C068C468201D22
:101A600000F030FB94F82800410718D5A0692B46F8
:101A7000411932462046FFF779FFA0B10020034606
:101A8000014600902A46204601F0CCFB58B90A498D
:101A90004FF4FC7201F11800FEF70EFC03E020F099
:101AA000010084F82800216A01B02046BDE8F0401A
:101AB000084700008C0000208831000870B586B00F
:101AC0003D4E70E00198002806DADDE90301029A34
:101AD00090470198002866DB039C606910B1201DC7
:101AE00000F0F0FA05A800F0C3F8054601980A28AE
:101AF00059D2DFE800F00505052F354C05052F35D7
:101B000094F828002A4640F0010084F82800029842
:101B1000A169034601442046FFF728FF002842D070
:101B2000216A2046884794F8280040073BD50020CA
:101B300000900298A169002342181946204601F03E
:101B400071FB00282FD140F213321CA121A0FEF717
:101B5000B3FB28E014F8280F20F00100207022E0E9
:101B600094F8280040F0010084F828000298A06151
:101B700028B940F22B3211A116A0FEF79DFBA069F7
:101B80002B4641191A462046FFF7F0FE0BE094F869
:101B90002800810703D4204600F048FB03E020F032
:101BA000010084F82800002201A9306801F000F843
:101BB000002887D106B070BD8C0000202E2E5C4618
:101BC00072656552544F535C74696D6572732E6310
:101BD000000000004572726F723A25732C25640D67
:101BE0000A000000F8B50D46064600F045FD6846BF
:101BF00000F03EF80446009810B101F023FAF8BD59
:101C00001148ADB101690968D9B10025311B2A46D7
:101C1000006800F0C3FB01F015FA0028EFD10B4972
:101C20004FF080500860BFF34F8FBFF36F8FF8BD48
:101C3000A642EBD801F006FA21463046FFF708FF2E
:101C4000F8BD0125E2E700008C00002004ED00E073
:101C50000648416B096829B1416BC968C968496880
:101C6000816270474FF0FF31FAE70000500000201A
:101C700070B5054601F0C6F8064E0446B0688442C9
:101C800003D200F009F8012000E00020286020467F
:101C9000B46070BD8C000020F8B5194E27E0C06814
:101CA000C4680568201D00F00DFA216A20468847A7
:101CB00094F8280040071AD5A0692844A84206D9FC
:101CC00024616060211DF06800F01DFA0FE0002023
:101CD0000346014600902A46204601F0A3FA30B997
:101CE00008494FF4617201F11800FEF7E5FAF06857
:101CF00001680029D3D13169C6E90310F8BD00009D
:101D00008C0000208831000808484068401C04D03E
:101D1000CA2207A111A0FEF7CFFA502080F3118844
:101D2000BFF34F8FBFF36F8FFEE70000B8000020B6
:101D30002E2E5C4672656552544F535C706F727400
:101D400061626C655C525644535C41524D5F434D39
:101D5000335C706F72742E63000000004572726F06
:101D6000723A25732C25640D0A000000084CE068C7
:101D7000016839B1002139B10020FFF733FFFFF7C7
:101D80009DFEF4E70121F6E7C0680068F5E7000072
:101D90008C0000202DE9F041044600F0D9F994F9B7
:101DA000455004F1240610E0A06C20B1002120462B
:101DB000FFF706FE04E0606A48B1304601F0F6F82D
:101DC00008B100F0B1FB6D1E6DB2002DECDC4FF0E0
:101DD000FF3684F8456000F0F7F900F0B9F994F99E
:101DE000445004F1100709E0206948B1384601F079
:101DF000DDF808B100F098FB6D1E6DB2002DF3DC2C
:101E000084F84460BDE8F04100F0DEB92DE9F0410E
:101E10000546002600F030FC324F386808B9FFF75D
:101E2000C5FCF86805424FD1002D4DD00835680734
:101E30000BD005F00700C0F108000544680704D086
:101E4000952229A132A0FEF737FA002D3CD0786800
:101E5000854239D8234910310846046801E02146FB
:101E600004466068A84202D220680028F7D138688A
:101E7000B846844228D00E6820680860606808363A
:101E8000401B10280ED96719780704D0C22216A16A
:101E90001FA0FEF711FA6068401B78603846656045
:101EA000FFF73EFD6168D8F804004246401AC8F8C2
:101EB0000400D8F80830984200D29060D8F80C009E
:101EC00001430020C4E9000101F0BCF8700705D00F
:101ED0004FF4817204A10EA0FEF7EEF93046BDE882
:101EE000F0810000A00000202E2E5C467265655235
:101EF000544F535C706F727461626C655C4D656DBC
:101F00004D616E675C686561705F342E6300000030
:101F10004572726F723A25732C25640D0A00000019
:101F200010B5031F4FF080741C601B1F21F00101CE
:101F30001960191F024B0B60143940380A6010BD3C
:101F4000091D00081CB500F003F9FFF711FAFFF7AF
:101F5000EBF9FFF741F9FEF7E9FDFFF731FAFEF77C
:101F6000B1FCFEF767FDFEF77FFE1A490320CDE9BD
:101F700000010023642218A11A4800F009FF154946
:101F80000420091DCDE900010023642216A11A488E
:101F900000F0FEFE0F4901200831CDE900010023C9
:101FA000642216A1184800F0F3FE0A4902200C3101
:101FB000CDE900010023802214A1174800F0E8FEBB
:101FC0000448001F006800F041FABDE81C4000F022
:101FD000FBB80000180000206F6C65645F746173CB
:101FE0006B000000730B00086E726632346C303187
:101FF0005F7461736B000000B10A00086C65645F78
:102000007461736B00000000391500086B65795F1F
:102010007461736B000000003115000870B505464F
:1020200086B001210420FEF7BDFD4FF40070ADF82D
:10203000100003248DF812401820204E8DF8130054
:1020400004A93046FEF797FB3015ADF810000420C8
:102050008DF8130004A93046FEF78DFB25208DF87E
:1020600014008DF815408DF8164001208DF81700EA
:1020700005A8FEF71FFD0020ADF80400ADF806002E
:10208000ADF80800ADF80C000C200D4CADF80A00BE
:10209000009500212046FEF74BFF69462046FEF7DB
:1020A0008FFF012240F225512046FEF771FF0121EA
:1020B0002046FEF73DFF06B070BD0000000801405D
:1020C00000380140D0E9013201699A60D0E901236A
:1020D0005A604A68824201D182684A6000220261E5
:1020E0000868401E08600868704700F108014FF05A
:1020F000FF32C0E90112C160016100210160704737
:1021000000210161704730B50C68621C02D000F1FB
:10211000080202E0026904E01A4653681D68A542FD
:10212000FAD953684B6099608A6051600861016810
:10213000491C016030BD42684A6093688B609368B7
:102140005960916008610168491C01607047000096
:10215000502080F31188BFF34F8FBFF36F8F094971
:102160004868401C486001280AD10748006810F000
:10217000FF0F05D04FF4B37204A10FA0FEF79CB877
:1021800070470000B800002004ED00E02E2E5C46F1
:1021900072656552544F535C706F727461626C6506
:1021A0005C525644535C41524D5F434D335C706FFB
:1021B00072742E63000000004572726F723A2573CC
:1021C0002C25640D0A00000010B5084C606828B981
:1021D00040F26D1206A111A0FEF76EF86068401E75
:1021E000606001D180F3118810BD0000B8000020AC
:1021F0002E2E5C4672656552544F535C706F72743C
:1022000061626C655C525644535C41524D5F434D74
:10221000335C706F72742E63000000004572726F41
:10222000723A25732C25640D0A00000070B5002851
:102230002AD0164DA0F108046068E968084205D16B
:102240004FF48B7212A11CA0FEF736F8206828B15B
:1022500040F217120EA118A0FEF72EF86068E96888
:10226000084211D02268002A0ED18843606000F035
:1022700003FA60686968084468602046FFF750FB0D
:10228000BDE8704000F0DEBE70BD0000A000002080
:102290002E2E5C4672656552544F535C706F72749B
:1022A00061626C655C4D656D4D616E675C68656112
:1022B000705F342E630000004572726F723A2573AE
:1022C0002C25640D0A0000004FF0E0200021016180
:1022D000816105494FF47A720968B1FBF2F1491E38
:1022E00041610721016170470000002010B5FDF732
:1022F000BDFF104C10280CD300F1E02090F8F00343
:102300002178884205D240F2A5220BA115A0FDF745
:10231000D3FF18480068A16800F4E060884207D93C
:10232000BDE8104040F2B52203A10EA0FDF7C4BFE6
:1023300010BD0000B80000202E2E5C46726565526C
:10234000544F535C706F727461626C655C5256449A
:10235000535C41524D5F434D335C706F72742E631A
:10236000000000004572726F723A25732C25640DCF
:102370000A0000000CED00E010B5074B002253F8F6
:1023800032401CB1521C082AF9D310BD43F8321058
:1023900003EBC201486010BD8C01002070B51546EA
:1023A0000E460446FFF7D4FE94F944100020491C61
:1023B00001D184F8440094F94510491C01D184F8F6
:1023C0004500FFF701FFA06B28B92A46314604F10A
:1023D000240000F0D9F82046BDE87040FFF7DABCD1
:1023E00010B5040012D00E49096B29B140F23C52DD
:1023F0000CA111A0FDF760FF00F03EF9002120467E
:10240000FFF7B8F800F01EFE002807D10E494FF084
:1024100080500860BFF34F8FBFF36F8F10BD000077
:10242000500000202E2E5C4672656552544F535C5E
:102430007461736B732E63004572726F723A257309
:102440002C25640D0A00000004ED00E070B5044680
:10245000FFF77EFE234D04B92C68201DFFF732FEE6
:1024600058B9E06A204A00EB800152F8211021B9E6
:1024700001218140286988432861A06A18B104F1CC
:102480001800FFF71FFE686A401C686228688442D3
:1024900007D1211D1548FFF74EFE6868401C686093
:1024A00007E0A868401EA8602046FFF774F9FFF710
:1024B000CFFBFFF789FE6869002812D028688442A4
:1024C0000FD1286B28B140F2D24209A10DA0FDF72F
:1024D000F3FE10494FF080500860BFF34F8FBFF3F9
:1024E0006F8F70BD50000020CC01002088040020B8
:1024F0002E2E5C4672656552544F535C7461736B4B
:10250000732E63004572726F723A25732C25640D29
:102510000A00000004ED00E002490A6A0260C9688E
:10252000416070475000002001490120C861704798
:102530005000002070B50D46040005D140F6CE32A3
:1025400007A10CA0FDF7B8FE0E480168204618311F
:10255000FFF7D9FD2846BDE870400121FFF70AB812
:102560002E2E5C4672656552544F535C7461736BDA
:10257000732E63004572726F723A25732C25640DB9
:102580000A0000005000002070B514460E460500F9
:1025900005D140F6F93209A10DA0FDF78DFE1048D6
:1025A000016828461831FFF7C6FD0CB14FF0FF3621
:1025B00021463046BDE87040FEF7DCBF2E2E5C465B
:1025C00072656552544F535C7461736B732E630074
:1025D0004572726F723A25732C25640D0A00000053
:1025E000500000201CB517480024CDE900402346C8
:1025F000822215A1164800F0CBFB012803D100F080
:10260000D7FD01280AD0401C1BD102B04FF4026252
:10261000BDE810400FA114A0FDF74EBE502080F37E
:102620001188BFF34F8FBFF36F8F06484FF0FF3114
:102630002C38816201214161C460BDE81C4000F07A
:1026400061B81CBD7C00002049444C4500000000DE
:10265000F91700082E2E5C4672656552544F535C84
:102660007461736B732E63004572726F723A2573D7
:102670002C25640D0A0000000248016B491C01630F
:10268000704700005000002070B5134D286B10B14A
:102690000120E86170BD0020E86128690F4EB0FAA2
:1026A00080F0C0F11F0000EB800456F8240028B928
:1026B00040F6B7320AA10FA0FDF7FEFD06EB84003D
:1026C00000F10802416849684160914201D14968BE
:1026D0004160C868286070BD50000020CC01002017
:1026E0002E2E5C4672656552544F535C7461736B59
:1026F000732E63004572726F723A25732C25640D38
:102700000A0000007CB52A4D28780190FF2028702F
:1027100028788DF800009DF800009DF8001000F06A
:10272000F000884205D04FF48A7222A12CA0FDF758
:10273000C3FD9DF800002E4C00F0500020700720D3
:10274000A06006E0401EA0609DF8000040008DF8EB
:1027500000009DF800000006A068F3D403280ED006
:1027600040F2271213A11EA0FDF7A6FDA0680328C2
:1027700005D04FF498720FA119A0FDF79DFD207AA6
:10278000000200F4E060A060019828701948016818
:1027900041F470010160016841F070410160FFF790
:1027A00093FD00206060FDF72BFD00207CBD000044
:1027B00000E400E02E2E5C4672656552544F535C77
:1027C000706F727461626C655C525644535C415226
:1027D0004D5F434D335C706F72742E6300000000D8
:1027E0004572726F723A25732C25640D0A00000041
:1027F000B800002020ED00E010B5502080F31188D3
:10280000BFF34F8FBFF36F8F00F002FB18B1044985
:102810004FF080500860002080F3118810BD000048
:1028200004ED00E02DE9F04117460E46050005D104
:102830004FF4BB7210A115A0FDF73EFDBEB105FB24
:1028400006F05430FFF7E2FA04000ED004F1540011
:102850007EB12060C4E90F562046012100F01EF829
:1028600084F8507000212046A164BDE8F08100206A
:10287000E7E72460EEE700002E2E5C4672656552A5
:10288000544F535C71756575652E63004572726FA8
:10289000723A25732C25640D0A00000070B50D46B0
:1028A000040005D140F203121CA121A0FDF704FD94
:1028B000FFF74EFCD4E90F20216802FB0011A16054
:1028C0000021A163216861600A46D4E90F01401E1E
:1028D00000FB0121E16021464FF0FF3001F8440F79
:1028E000487004F110004DB1FFF7FFFB04F1240024
:1028F000FFF7FBFBFFF768FC012070BD2169002991
:10290000F8D000F053FB0028F4D00D494FF0805070
:102910000860BFF34F8FBFF36F8FEBE72E2E5C463F
:1029200072656552544F535C71756575652E630011
:102930004572726F723A25732C25640D0A000000EF
:1029400004ED00E02DE9FF4F83B01F468B460400E5
:102950004FF0000605D140F2F12253A157A0FDF738
:10296000ABFCBBF1000F07D1206C28B140F2F22282
:102970004DA152A0FDF7A0FC022F08D1E06B012869
:1029800005D040F2F32248A14CA0FDF795FC00F0E1
:102990002BFA38B9059828B140F2F62242A147A097
:1029A000FDF78AFC4FF0000A4FF08058DFF81C91C9
:1029B000FFF7CEFBA06BE16B884205D3022F03D05B
:1029C000059820B336B329E0A56B3A465946204610
:1029D000FEF7ABFEA16C39B1022F00D18DB939469B
:1029E0002046FEF7EDFF05E0616A19B104F124000D
:1029F00000F0DCFA28B1C9F80080BFF34F8FBFF3B5
:102A00006F8FFFF7E1FB012007B0BDE8F08FFFF704
:102A1000DBFB21E06846FFF77FFD0126FFF7D4FBD3
:102A2000FFF72AFEFFF794FB94F94400401C01D104
:102A300084F844A094F94500401C01D184F845A0D5
:102A4000FFF7C2FB05A9684600F05AF930B12046ED
:102A5000FFF7A0F900F0F6FA0020D5E7FFF778FBC2
:102A6000A06BE16B884201D1012500E00025FFF752
:102A7000ABFB95B104F110000599FFF75BFD204613
:102A8000FFF788F900F0DEFA002891D1C9F800803C
:102A9000BFF34F8FBFF36F8F8AE72046FFF77AF9B6
:102AA00000F0D0FA84E700002E2E5C467265655275
:102AB000544F535C71756575652E63004572726F76
:102AC000723A25732C25640D0A00000004ED00E025
:102AD0002DE9F047984615468946040005D140F295
:102AE000C3322AA12EA0FDF7E7FBB9F1000F07D1F1
:102AF000206C28B14FF4717224A129A0FDF7DCFBF2
:102B0000B8F1020F08D1E06B012805D040F2C532C0
:102B10001EA123A0FDF7D0FBFFF7E8FB5020EFF349
:102B2000118780F31188BFF34F8FBFF36F8FA06BB6
:102B3000E16B884207D3B8F1020F04D0002087F37D
:102B40001188BDE8F08794F9456042464946204621
:102B5000FEF7EBFD701C04D0761C84F84560012064
:102B6000EDE7A06C012620B141462046FEF728FF84
:102B700006E0606A0028F2D004F1240000F016FAA2
:102B80000028ECD0002DEAD02E60E8E72E2E5C461F
:102B900072656552544F535C71756575652E63009F
:102BA0004572726F723A25732C25640D0A0000007D
:102BB0002DE9F74783B08A4604004FF0000605D19F
:102BC0004FF4A06244A149A0FDF776FBBAF1000FD3
:102BD00007D1206C28B140F204523FA143A0FDF779
:102BE0006BFB00F001F938B9059828B140F20952A1
:102BF00039A13EA0FDF760FB00274FF08058DFF8B9
:102C0000FC90FFF7A5FAA56BC5B151462046FEF72B
:102C100079FD6D1EA563206950B104F1100000F02C
:102C2000C5F928B1C9F80080BFF34F8FBFF36F8F8C
:102C3000FFF7CAFA012006B0BDE8F087059808B191
:102C40001EB106E0FFF7C0FA27E06846FFF764FC14
:102C50000126FFF7B9FAFFF70FFDFFF779FA94F9AC
:102C60004400401C01D184F8447094F94500401C94
:102C700001D184F84570FFF7A7FA05A9684600F06E
:102C80003FF8002820460AD0FFF784F800F0DAF970
:102C90002046FEF787FE0028B3D00020CBE7FEF7E2
:102CA00081FE90B104F124000599FFF743FC204612
:102CB000FFF770F800F0C6F90028A2D1C9F800802B
:102CC000BFF34F8FBFF36F8F9BE72046FFF762F88C
:102CD00000F0B8F995E700002E2E5C46726565524B
:102CE000544F535C71756575652E63004572726F44
:102CF000723A25732C25640D0A00000004ED00E0F3
:102D00002DE9F0410C46050005D140F6944216A18C
:102D10001AA0FDF7D1FA2CB940F6954212A117A0DE
:102D2000FDF7CAFAFFF714FA184EF1686B682268CB
:102D3000C81A571C07D02F68366AB74209D08B4291
:102D400007D8012400E00024FFF73EFA2046BDE842
:102D5000F081824205D9101A20602846FFF7DCFB7B
:102D6000F1E700202060ECE72E2E5C46726565528C
:102D7000544F535C7461736B732E63004572726FB2
:102D8000723A25732C25640D0A00000050000020C3
:102D90002DE9FF5F8346DDE90E87994616468A4690
:102DA0009000FFF733F805001AD05C20FFF72EF8EB
:102DB000040012D025630021CDE90241CDE900874E
:102DC0004B46324651465846FEF744FD2046FEF734
:102DD00009FC012004B0BDE8F09F2846FFF726FA61
:102DE0004FF0FF30F6E700000548416919B1006B6C
:102DF00018B1002070470120704702207047000082
:102E0000500000200148C0687047000050000020BA
:102E10002DE9F0412D4F0026386B40B1B869401CB8
:102E2000B861F86900B101263046BDE8F081FD685F
:102E30006D1CFD6011D1786B006828B140F67F22CF
:102E400023A128A0FDF738FA786BB96B7963B863D2
:102E5000386A401C3862FEF7FBFEB86ADFF89480DF
:102E6000854209D3786B006880B1786BC068C4680C
:102E7000606885420DD2B8623868C06A00EB800194
:102E800058F821000128CCD90126CAE74FF0FF30BD
:102E9000F1E7201DFFF716F9A06A18B104F1180038
:102EA000FFF710F9E06A01213A6981401143396165
:102EB00000EB800108EB8100211DFFF73CF9E06A7F
:102EC0003968C96A8842CDD30126CBE7500000207B
:102ED0002E2E5C4672656552544F535C7461736B61
:102EE000732E63004572726F723A25732C25640D40
:102EF0000A000000CC01002070B504004FF000066D
:102F00003CD01F4D2868844205D040F6D1721DA1E7
:102F100021A0FDF7D1F9206D28B940F6D27219A190
:102F20001DA0FDF7C9F9206D401E2065E26CE16A25
:102F3000914223D010BB201DFFF7C4F81A4901228B
:102F400050B9E06A00EB800351F8233023B92B69B4
:102F500002FA00F083432B61E06CE062C0F12000D4
:102F6000A061E06A2B6982401A432A6100EB80006D
:102F700001EB8000211DFFF7DEF80126304670BD11
:102F8000500000202E2E5C4672656552544F535CF3
:102F90007461736B732E63004572726F723A25739E
:102FA0002C25640D0A000000CC0100202DE9F04121
:102FB000C068C4682CB940F6294216A11AA0FDF7D2
:102FC0007BF904F118000746FFF77CF81A4D286BCF
:102FD000012660B139461948FFF7ADF8E06A296863
:102FE000C96A884213D90120EE61BDE8F081201D35
:102FF000FFF768F8E06A2A6906FA00F111432961CF
:103000000F4900EB800001EB8000211DE4E7002068
:10301000EBE700002E2E5C4672656552544F535C00
:103020007461736B732E63004572726F723A25730D
:103030002C25640D0A0000005000002074040020BC
:10304000CC0100202DE9F0472B4D00242746286BAA
:1030500028B940F6850229A12DA0FDF72DF9FFF72B
:1030600077F8286B401E2863286BE8BBA8682C49BA
:103070000126C8B3A1F52A798846D8F80010E9B12D
:10308000D8F80C00C46804F11800FFF71BF8201DE5
:10309000FFF718F8E06A2A6906FA00F1114329617E
:1030A00000EB800109EB8100211DFFF744F8E06A85
:1030B0002968C96A8842E0D3EE61DEE70CB1FEF709
:1030C000C7FDAC693CB1FFF7A3FE00B1EE61641E21
:1030D000F9D10020A861E86930B112490127380709
:1030E0000860BFF34F8F00E001E0BFF36F8FFFF781
:1030F0006BF83846BDE8F087500000202E2E5C4665
:1031000072656552544F535C7461736B732E630028
:103110004572726F723A25732C25640D0A00000007
:103120007404002004ED00E02DE9F04707469946BD
:1031300016460D462C20DDF820A0FEF767FE0400A1
:103140001ED0B84600204F4684F82800D1462DB93D
:1031500040F265120CA112A0FDF7AEF8FEF7AAFA34
:1031600004F11801C4F8008081E8A002201DFEF7D8
:10317000C7FF2EB194F8280040F0040184F828100D
:103180002046BDE8F08700002E2E5C467265655231
:10319000544F535C74696D6572732E6300000000B8
:1031A0004572726F723A25732C25640D0A00000077
:1031B0001CB50024FEF77EFA0C48006868B10B4984
:1031C0001F20091DCDE9000100234FF4827208A1E0
:1031D0000948FFF7DDFD040005D140F2131207A1F5
:1031E0000CA0FDF769F820461CBD00008C000020F3
:1031F000546D7220537663006D1D00082E2E5C46C0
:1032000072656552544F535C74696D6572732E63B9
:10321000000000004572726F723A25732C25640D10
:103220000A0000002DE9FF47DDF830A099469046DE
:103230000D4606004FF0000705D14FF4C17212A1F0
:1032400017A0FDF739F81A4C206880B1CDE9005875
:103250000296062D11DAFFF7C7FD02284FF0000392
:1032600009D0002269462068FFF76CFB074604B0CE
:103270003846BDE8F0875246F4E700234A466946DF
:10328000FFF726FCF2E700002E2E5C4672656552C1
:10329000544F535C74696D6572732E6300000000B7
:1032A0004572726F723A25732C25640D0A00000076
:1032B0008C000020524632344C303120686173203B
:1032C0006265656E20636F6E6E6563746564202150
:1032D0002E2E2E00524632344C3031206973206E2F
:1032E0006F742066696E6420212E2E2E000000006F
:1032F0001033000800000020C40000006C0100082A
:10330000D4330008C4000020745A0000880100086B
:1033100000A24A04000000000000000001020304B3
:10332000060708090000000000000000000000007F
:103330000000000000000000D4320008B432000891
:103340000000000000000000000000000204060869
:10335000000000000102030401020304060708093B
:10336000000000000000000000000000000000005D
:10337000000000000000000000000000000000004D
:10338000000000000000000000000000000000003D
:10339000000000000000000000000000000000002D
:1033A000000000000000000000000000000000001D
:1033B000000000000000000000000000000000000D
:1033C000000000000000000000000000AAAAAAAA55
:0433D00000000000F9
:040000050800027578
:00000001FF
